S027000046697461206465204C4544202D20575332383132202D202853414D653730292E737265634C
S21440000070254020090F4000B90F4000B90F40004E
S214400010B90F4000B90F4000B90F40000000000083
S214400020000000000000000000000000B90F400083
S214400030B90F400000000000B90F4000B90F400063
S214400040B90F4000B90F4000B90F4000B90F40004B
S214400050B90F4000B90F4000B90F4000B90F40003B
S214400060B90F400000000000C10A4000D90A400015
S214400070F10A4000B90F4000B90F4000B90F4000E8
S214400080090B4000210B4000B90F4000B90F40005B
S214400090B90F4000B90F4000B90F4000B90F4000FB
S2144000A0B90F4000B90F4000B90F4000B90F4000EB
S2144000B0B90F400089064000B90F4000B90F400014
S2144000C0B90F4000B90F4000B90F4000B90F4000CB
S2144000D000000000B90F400000000000B90F4000CB
S2144000E0A1064000B90F4000B90F4000B90F4000CC
S2144000F0B90F4000B90F4000B90F4000B90F40009B
S214400100B90F4000B90F4000B90F4000B90F40008A
S214400110B90F400000000000000000000000000092
S214400120B90F4000B90F4000B90F4000B90F40006A
S214400130B90F400000000000B90F4000B90F400062
S21440014010B5054C237833B9044B13B10448AFF3CC
S21440015000800123237010BD3C04402000000000B6
S214400160E87840000C4B43B10C480D4910B5AFF34E
S21440017000800C48036823B910BD0A48036833B9A9
S2144001807047094B002BF7D0BDE810401847064B88
S214400190002BF5D0184700BF00000000E87840006C
S2144001A040044020E87840000000000080B582B05F
S2144001B000AF78607B68072B31D801A252F823F055
S2144001C01D024000E1014000E9014000F10140000D
S2144001D0F9014000010240000902400013024000BD
S2144001E00020114B98471AE001200F4B984716E025
S2144001F000200E4B984712E010200C4B98470EE01C
S21440020020200A4B98470AE03E210020084B98479A
S21440021005E03E210120064B984700E000BF00BFA6
S2144002200837BD4680BD00BF390C4000A50C4000D5
S214400230150D400080B582B000AF78607B68072B14
S21440024026D801A252F823F0690240006D02400011
S2144002506D0240007F0240007F0240007F02400067
S2144002607F0240007F024000012312E00B4B98477C
S2144002700346002B14BF01230023DBB209E0084BE2
S21440028098470346002B14BF01230023DBB200E04F
S214400290002318460837BD4680BD00BF710C40009D
S2144002A08D0D400080B483B000AF78607B68072B2C
S2144002B025D801A252F823F0D9024000DF024000C0
S2144002C0E5024000EB024000EF024000F30240002F
S2144002D0F7024000FB0240004FF4FA4310E04FF4B0
S2144002E000430DE04FF400430AE0084B08E0084B9B
S2144002F006E0084B04E0074B02E0064B00E0002314
S21440030018460C37BD465DF8047B704700093D0033
S21440031000127A00001BB70080B582B000AF0346DB
S214400320FB7100BFFB791846054B9847034683F0A0
S2144003300103DBB2002BF5D100BF0837BD4680BDB8
S2144003403502400080B586B000AFF8607A603B600A
S2144003500B46FB727B68002B07D13B68002B04D111
S214400360FB684FF470021A6019E0FB7A18460E4B91
S214400370984702467B68B2FBF3F37B617B693A6839
S21440038002FB03F37B613B68013B1A04074B1340B7
S2144003907A68D2B2134343F47C52FB681A6000BFBB
S2144003A01837BD4680BD00BFA50240000000FF07CD
S2144003B080B582B000AF786039603B68002B08D1CA
S2144003C0094B9847094A7B681B6843F00053936281
S2144003D005E0064A7B681B6843F48033D36100BF60
S2144003E00837BD4680BD00BFA90D400000060E4040
S2144003F080B582B000AF78607B68002B03D1054B98
S2144004009847034602E0044B984703461846083789
S214400410BD4680BDC50D4000E10D400080B582B0B0
S21440042000AF0346FB71FB79033B042B08D8FB79EE
S2144004301846064B9847FB791846054B984700E008
S21440044000BF00BF0837BD4680BD00BFAD014000BD
S2144004501903400080B582B000AF786000BF78686E
S214400460044B98470346002BF9D00023184608371C
S214400470BD4680BDF103400080B500AF0620054B69
S2144004809847024613469B0013449A001344184666
S21440049080BD00BFA502400080B500AF024B984724
S2144004A00346184680BD00BF7904400090B583B02F
S2144004B000AF1348134B98470620134B9847381DF8
S2144004C0192301220621114CA0473B1D0021184646
S2144004D00F4B984700200F4B984702200E4B9847EB
S2144004E000200E4B98470E4B98470E4B98470346B6
S2144004F01846044B984700BF0C37BD4690BD00BF1A
S21440050000A3E111291140001D04400045034000AE
S214400510B103400055044000390B4000B50B400085
S214400520C10F40009904400080B483B000AF7860AB
S2144005307B681B6B18460C37BD465DF8047B7047DE
S21440054080B483B000AF78607B68DB6A18460C37AF
S214400550BD465DF8047B704780B483B000AF7860DA
S2144005607B68094A934201D1012306E07B68074A2B
S214400570934201D1002300E0002318460C37BD46C5
S2144005805DF8047B704700BF0040064000C0034053
S21440059080B582B000AF03463960FB71FB790A49EB
S2144005A01A013B68134451F82330002B07D0FB79DF
S2144005B005491A013B68134451F82330984700BF59
S2144005C00837BD4680BD00BFC804402090B587B000
S2144005D000AF78607868284B984704467868274B81
S2144005E0984703462340FB607868254B9847386118
S2144005F000237B6139E07B690B2B0FD801227B6996
S21440060002FA03F31A46FB681340002B2AD03B69D4
S214400610DBB2796918461B4B984723E07B690E2B63
S21440062010D87B690C33012202FA03F31A46FB68A2
S2144006301340002B16D03B69DBB279691846114B44
S21440064098470FE07B690F33012202FA03F31A46FC
S214400650FB681340002B05D03B69DBB2796918462E
S214400660084B98477B6901337B617B690F2BC2D966
S21440067000BF1C37BD4690BD2905400041054000DF
S214400680590540009105400080B500AF0248034B35
S214400690984700BF80BD00BF00C00340CD05400066
S2144006A080B500AF0248034B984700BF80BD00BFEF
S2144006B000400640CD05400080B485B000AFF860ED
S2144006C0B9607A607B68002B03D0FB68BA685A66CC
S2144006D002E0FB68BA681A6600BF1437BD465DF88C
S2144006E0047B704780B483B000AF786039607B6825
S2144006F03A685A6300BF0C37BD465DF8047B7047C6
S21440070080B487B000AFF860B9607A60FB687A68FA
S2144007105A64BB68B3F1C05F4AD0B3F1C05F08D833
S214400720B3F1006F16D0B3F1805F2CD0002B69D0A8
S21440073064E0B3F1205F65D0B3F1205F03D8B3F136
S214400740005F4AD05AE0B3F1405F5BD0B3F1605FE0
S21440075058D053E0FB681B6F7B61FB681A6F7B6861
S214400760D9437B690B401A40FB681A67FB685B6F8E
S2144007707B61FB685A6F7B68D9437B690B401A40A4
S214400780FB685A673AE0FB681B6F7B617A687B6957
S2144007901A43FB681A67FB685B6F7B61FB685A6F9E
S2144007A07B68D9437B690B401A40FB685A6725E053
S2144007B0FB681B6F7B61FB681A6F7B68D9437B695C
S2144007C00B401A40FB681A67FB685B6F7B617A6870
S2144007D07B691A43FB685A6710E0FB681B6F7B61B6
S2144007E07A687B691A43FB681A67FB685B6F7B61B4
S2144007F07A687B691A43FB685A6700BFFB687A6869
S2144008005A6000E000BF1C37BD465DF8047B704769
S21440081080B584B000AFF860B9607A60B968F868AF
S214400820194B98477B6803F001031A46B968F86885
S214400830164B98477B6803F00A03002B03D0FB68EF
S214400840BA681A6202E0FB68BA685A627B6803F0CC
S2144008500203002B04D0FB68BA68C3F8802008E087
S2144008607B6803F00803002B03D0FB68BA68C3F824
S2144008708420FB68BA685A61FB68BA681A6000BF91
S2144008801037BD4680BD00BFC1094000B9064000D4
S21440089080B584B000AFF860B9607A603B60B968F4
S2144008A0F868124B9847BA69B968F868104B984789
S2144008B03B68002B03D0FB68BA681A6502E0FB6809
S2144008C0BA685A657B68002B03D0FB68BA681A631F
S2144008D002E0FB68BA685A63FB68BA681A61FB684C
S2144008E0BA681A6000BF1037BD4680BDC1094000D7
S2144008F0B906400090B587B002AFF860B9607A603C
S2144009003B60BB68B3F1005F16D0B3F1005F09D817
S214400910B3F1805F10D0B3F1C05F0DD0B3F1006F7C
S2144009200AD03DE0B3F1405F1AD0B3F1605F17D014
S214400930B3F1205F0ED033E07A68B968F8681C4B94
S21440094098473B6803F001031A467968F868194BE4
S214400950984727E03A687968F868174B984721E047
S214400960BB68B3F1605F0CBF01230023DBB21A46BD
S2144009703B6803F00403002B14BF01230023DBB2C3
S21440098019463B6803F00103002B14BF01230023E4
S214400990DBB200930B467968F868084CA04701E044
S2144009A0002300E0012318461437BD4690BD00BF23
S2144009B001074000B9064000110840009108400079
S2144009C080B483B000AF786039607B683A685A6418
S2144009D000BF0C37BD465DF8047B704780B483B0DB
S2144009E000AF78607B68DB6C18460C37BD465DF818
S2144009F0047B704780B483B000AF78607B689B6CA4
S214400A0018460C37BD465DF8047B704780B584B009
S214400A1000AF786039607868264B9847F860786809
S214400A20254B98470246FB681340FB60FB68002B4B
S214400A303CD00023BB6034E0204ABB681B01134413
S214400A401A683B689A4226D11C4ABB681B0113446D
S214400A5004331A68FB681340002B1CD0174ABB6847
S214400A601B0113440C331B681449BA6812010A442C
S214400A7010681249BA6812010A44043212681146D4
S214400A8098470E4ABB681B01134404331B68DB437C
S214400A90FA681340FB60BB680133BB60BB68062B3B
S214400AA003D8FB68002BC7D100E000BF00BF10375B
S214400AB0BD4680BDDD094000F50940005804402091
S214400AC080B500AF0A210248024B984700BF80BD60
S214400AD0000E0E400D0A400080B500AF0B210248C4
S214400AE0024B984700BF80BD00100E400D0A4000E4
S214400AF080B500AF0C210248024B984700BF80BD2E
S214400B0000120E400D0A400080B500AF102102488A
S214400B10024B984700BF80BD00140E400D0A4000AF
S214400B2080B500AF11210248024B984700BF80BDF8
S214400B3000160E400D0A400080B483B000AF7860C7
S214400B407B68013B032B1AD801A252F823F000BF62
S214400B50610B4000670B40006F0B4000770B400076
S214400B6000237B600EE04FF480737B600AE04FF416
S214400B7040737B6006E04FF400737B6002E0002326
S214400B807B6000BF0A490A4B1B6B23F440727B68AC
S214400B9013430B6300BF064B9B6E03F00803002B0A
S214400BA0F9D000BF0C37BD465DF8047B704700BFE8
S214400BB000060E4080B485B000AF78601D491D4BDE
S214400BC01B6B23F070027B6813430B634FF4805318
S214400BD0FB6007E0FB68002B01D1012323E0FB68A4
S214400BE0013BFB60134B9B6E03F00803002BF1D0D8
S214400BF0104A104B1B6B23F0030343F002031363AE
S214400C004FF48053FB6007E0FB68002B01D10123C3
S214400C1009E0FB68013BFB60064B9B6E03F0080354
S214400C20002BF1D0002318461437BD465DF8047BF0
S214400C30704700BF00060E4080B483B000AF7860B7
S214400C407B68012B05D10749064B9A68064B134330
S214400C508B60044B054A1A6000BF0C37BD465DF8F2
S214400C60047B704710180E40000010A5080000A531
S214400C7080B400AF094B5B6903F08003002B07D0BC
S214400C80074B9B6E03F08003002B01D0012300E04E
S214400C9000231846BD465DF8047B704710180E408A
S214400CA000060E4080B483B000AF78601549154BFF
S214400CB01A6A154B13430B6200BF124B9B6E03F42C
S214400CC00033002BF9D00F490E4B1A6A0F4B1340D6
S214400CD07A68134343F45C130B6200BF094B9B6E68
S214400CE003F40033002BF9D00649064B1A6A084B2A
S214400CF0134043F45C130B6200BF0C37BD465DF8EF
S214400D00047B704700060E40080037008FFFC8FF80
S214400D10FFFFC8FE80B483B000AF786039607B6860
S214400D20002B08D01349134B1B6A134A1A40134B27
S214400D3013430B6218E00F490E4B1A6A104B1340D0
S214400D403A68120292B21A430E4B13430B6200BF2C
S214400D50084B9B6E03F00103002BF9D00549054B69
S214400D601A6A094B13430B6200BF0C37BD465DF849
S214400D70047B704700060E40FCFFC8FE02003701A9
S214400D80FCFFC8FF010037000000370180B400AF09
S214400D90044B9B6E03F480331846BD465DF8047BD7
S214400DA0704700BF00060E4080B400AF044B4FF0C3
S214400DB000529A6200BFBD465DF8047B704700BF94
S214400DC000060E4080B400AF044B9B6E03F0020357
S214400DD01846BD465DF8047B704700BF00060E40CF
S214400DE080B400AF044B9B6E03F040031846BD46EC
S214400DF05DF8047B704700BF00060E4080B483B0A9
S214400E0000AF78607B683F2B01D901232FE07B68D9
S214400E101F2B13D8194B9A6901217B6801FA03F3FB
S214400E201A4001217B6801FA03F39A421ED0134A06
S214400E3001217B6801FA03F3136117E07B68203BCE
S214400E407B600E4BD3F8082101217B6801FA03F33F
S214400E501A4001217B6801FA03F39A4206D0074AFA
S214400E6001217B6801FA03F3C2F8003100231846DB
S214400E700C37BD465DF8047B704700BF00060E4049
S214400E8080B483B000AFEFF310837B607B68002BA9
S214400E900CBF01230023DBB23B6072B6BFF35F8F0B
S214400EA0044B00221A703B6818460C37BD465DF866
S214400EB0047B70470A00402080B483B000AF78605F
S214400EC07B68002B14BF01230023DBB218460C3787
S214400ED0BD465DF8047B704780B582B000AF786051
S214400EE07868074B98470346002B05D0054B0122F0
S214400EF01A70BFF35F8F62B600BF0837BD4680BD2D
S214400F00B90E40000A00402080B584B000AF1E4BAA
S214400F10FB601E4BBB60FA68BB689A420CD007E089
S214400F20BB681A1DBA60FA68111DF96012681A602B
S214400F30BB68174A9342F3D3164BBB6004E0BB68CA
S214400F401A1DBA6000221A60BB68134A9342F6D351
S214400F50124BFB60124AFB6823F07F039360114BF1
S214400F6098477860104A104B1B6843F47003136030
S214400F70BFF34F8FBFF36F8F78680C4B98470C4B7F
S214400F8098470C4B9847FEE7E87840000000402022
S214400F903C0440203C0440206C05402000004000BB
S214400FA000ED00E0810E400088ED00E0D90E4000E4
S214400FB0497740003D6C400080B400AFFEE700003B
S214400FC080B400AF524B1B6B03F00303012B14D0CD
S214400FD0012B02D3022B38D07AE04E4B5B6903F0EC
S214400FE08003002B04D04C4B4FF400421A606FE055
S214400FF0494B4FF4FA421A606AE0454B1B6A03F0CD
S2144010008073002B03D0444B444A1A6060E0424B46
S214401010434A1A603E4B1B6A03F07003102B04D001
S214401020202B08D0002B0ED00EE03B4B1B685B00FD
S214401030394A136008E0384B1A6813465B0013447D
S214401040354A136000E000BF42E0314B1B6A03F0B4
S2144010508073002B03D0304B304A1A601CE02E4B76
S2144010602F4A1A602A4B1B6A03F07003102B04D0D9
S214401070202B08D0002B0ED00EE0274B1B685B00C1
S214401080254A136008E0244B1A6813465B00134455
S214401090214A136000E000BF1D4B1B6B03F00303A7
S2144010A0022B14D11A4B9B6A1B0CC3F30A03013361
S2144010B0194A126802FB03F3174A1360144B9B6AE3
S2144010C0DBB2154A1268B2FBF3F3134A136000BF53
S2144010D00F4B1B6B03F07003702B08D10E4B1B6835
S2144010E0104AA2FB03235B080B4A13600AE0084B36
S2144010F01B6B1B0903F00703074A126822FA03F327
S214401100054A136000BFBD465DF8047B704700BFCC
S21440111000060E4010180E400C004020001BB70082
S21440112000093D00ABAAAAAA80B483B000AF78609D
S2144011307B68194A934204D8184B4FF080621A6075
S21440114023E07B68164A934203D8144B154A1A602C
S2144011501BE07B68144A934203D8104B134A1A602C
S21440116013E07B68124A934203D80C4B114A1A602C
S2144011700BE07B68104A934204D8084B4FF0042299
S2144011801A6002E0054B0D4A1A6000BF0C37BD4698
S2144011905DF8047B704700BFFF2C3101000C0E4009
S2144011A0FF59620200010004FF8693030002000418
S2144011B0FFB3C40400030004FFE0F5050005000487
S2144011C080B483B000AF78607B68072B25D801A237
S2144011D052F823F0F5114000FB1140000112400088
S2144011E0071240000B1240000F124000131240003E
S2144011F0171240004FF4FA4310E04FF400430DE05E
S2144012004FF400430AE0084B08E0084B06E0084B62
S21440121004E0074B02E0064B00E0002318460C377C
S214401220BD465DF8047B704700093D0000127A0019
S214401230001BB70080B500AF0620054B9847024616
S21440124013469B0013449A001344184680BD00BFC3
S214401250C111400080B500AF024B98470346184680
S21440126080BD00BF3512400080B483B000AF144B41
S2144012704FF080421A630023BB7100BF104B4FF003
S21440128080421A6300237B7100BF0D4B4FF08042B3
S2144012901A630B4B4FF080425A630023FB7102E007
S2144012A0FB790133FB71FB79002BF9D0044B4FF0EF
S2144012B080425A6300BF0C37BD465DF8047B7047DA
S2144012C000140E4080B485B000AF0023BB60174BBF
S2144012D04FF080421A630023FB7302E0FB7B01332E
S2144012E0FB73FB7B132BF9D9104B4FF080425A63AC
S2144012F00023FB7100BF0D4B4FF080425A63002322
S214401300BB7100BF094B4FF080425A6300237B718C
S21440131000BF064B4FF080425A6300233B7100BF2C
S21440132000BF1437BD465DF8047B704700140E407E
S2144013302DE9F84300AF4FF080411948194B9847C4
S214401340194B9847034619464FF000020B46144681
S2144013504FEA041949EA13794FEA031843464C46C4
S2144013605B1A64EB0204A60046EA93769D002B4681
S2144013703446194622460D4B4FF00004CD1842EB3A
S2144013800406284631460A4C0A4A4FF00003A04756
S21440139003460C461846084B984700BFBDE8F883FE
S2144013A000140E40E506400055124000DF835A0008
S2144013B039744000E0835A000100402080B582B076
S2144013C000AF0023FB7104E0104B9847FB790133D4
S2144013D0FB71FB79072BF7D90023BB7104E00B4B5D
S2144013E09847BB790133BB71BB79072BF7D90023EC
S2144013F07B7104E0054B98477B7901337B717B79A1
S214401400072BF7D900BF0837BD4680BD691240009C
S21440141080B584B000AF0346FB710B46BB711346E4
S2144014207B710723FB7316E097F9062097F90F3078
S21440143042FA03F3BB73BB7B03F00103002B02D0DD
S214401440274B984701E0274B984797F90F30DBB278
S214401450013BDBB2FB7397F90F30002BE4DA07232E
S214401460FB7316E097F9072097F90F3042FA03F31B
S214401470BB73BB7B03F00103002B02D0184B98478D
S21440148001E0184B984797F90F30DBB2013BDBB2CF
S214401490FB7397F90F30002BE4DA0723FB7316E053
S2144014A097F9052097F90F3042FA03F3BB73BB7BDD
S2144014B003F00103002B02D0094B984701E0094B8B
S2144014C0984797F90F30DBB2013BDBB2FB7397F9D5
S2144014D00F30002BE4DA00BF1037BD4680BD00BF9A
S2144014E0C51240006912400080B582B000AF0023AC
S2144014F07B6004E0064B98477B6801337B607B68E3
S214401500FF2BF7DD034B984700BF0837BD4680BD2D
S214401510BD1340003113400080B582B000AF034693
S214401520FB710B46BB7113467B71814B9847804BD2
S21440153098477F4B98477E4B98477D4B98477C4BC8
S21440154098477B4B98477A4B9847794B9847784BC8
S2144015509847774B9847764B984797F9052097F9E1
S214401560061097F907301846724B9847704B9847C5
S2144015706F4B98476E4B98476D4B98476C4B9847C8
S21440158097F9052097F9061097F907301846694BE2
S2144015909847674B9847664B9847654B9847644BC8
S2144015A0984797F9052097F9061097F90730184697
S2144015B0604B984797F9052097F9061097F907303A
S2144015C018465C4B984797F9052097F9061097F907
S2144015D007301846574B984797F9052097F9061055
S2144015E097F907301846534B984797F9052097F9CF
S2144015F0061097F9073018464E4B984797F905203E
S21440160097F9061097F9073018464A4B984797F9C6
S214401610052097F9061097F907301846454B984726
S21440162097F9052097F9061097F907301846414B69
S21440163098473F4B98473E4B984797F9052097F970
S214401640061097F9073018463A4B984797F9052001
S21440165097F9061097F907301846364B984797F98A
S214401660052097F9061097F907301846314B9847EA
S21440167097F9052097F9061097F9073018462D4B2D
S214401680984797F9052097F9061097F907301846B6
S214401690284B984797F9052097F9061097F9073091
S2144016A01846244B984797F9052097F9061097F95E
S2144016B0073018461F4B984797F9052097F90610AC
S2144016C097F9073018461B4B9847194B9847184BC5
S2144016D09847174B9847164B9847154B9847144BC7
S2144016E09847134B9847124B9847114B9847104BC7
S2144016F098470F4B98470E4B98470D4B98470C4BC7
S21440170098470B4B98470A4B9847094B9847084BC6
S2144017109847074B9847064B9847054B9847044BC6
S2144017209847034B984700BF0837BD4680BD00BF6B
S214401730BD1340001114400080B582B000AF034690
S214401740FB710B46BB7113467B717A4B9847794BBE
S2144017509847784B9847774B9847764B9847754BC2
S2144017609847744B9847734B9847724B9847714BC2
S2144017709847704B98476F4B98476E4B98476D4BC2
S21440178098476C4B98476B4B98476A4B984797F9E6
S214401790052097F9061097F907301846664B984784
S2144017A0644B9847634B984797F9052097F906107E
S2144017B097F907301846604B984797F9052097F9F0
S2144017C0061097F9073018465B4B984797F905205F
S2144017D097F9061097F907301846574B984797F9E8
S2144017E0052097F9061097F907301846524B984748
S2144017F097F9052097F9061097F9073018464E4B8B
S21440180098474C4B98474B4B984797F9052097F984
S214401810061097F907301846474B9847454B984768
S214401820444B984797F9052097F9061097F90730E3
S2144018301846414B98473F4B98473E4B984797F939
S214401840052097F9061097F9073018463A4B9847FF
S214401850384B9847374B984797F9052097F9061025
S21440186097F907301846344B9847324B9847314BD8
S214401870984797F9052097F9061097F907301846C4
S2144018802D4B984797F9052097F9061097F907309A
S2144018901846294B9847274B9847264B984797F921
S2144018A0052097F9061097F907301846224B9847B7
S2144018B097F9052097F9061097F9073018461E4BFA
S2144018C0984797F9052097F9061097F90730184674
S2144018D0194B984797F9052097F9061097F907305E
S2144018E01846154B9847134B9847124B9847114B41
S2144018F09847104B98470F4B98470E4B98470D4BC1
S21440190098470C4B98470B4B98470A4B9847094BC0
S2144019109847084B9847074B9847064B9847054BC0
S2144019209847044B9847034B984700BF0837BD4637
S21440193080BD00BFBD1340001114400080B582B08A
S21440194000AF0346FB710B46BB7113467B717A4B67
S2144019509847794B9847784B9847774B9847764BBC
S2144019609847754B9847744B9847734B9847724BBC
S2144019709847714B9847704B98476F4B98476E4BBC
S21440198098476D4B98476C4B98476B4B98476A4BBC
S214401990984797F9052097F9061097F907301846A3
S2144019A0664B9847644B9847634B984797F9052092
S2144019B097F9061097F907301846604B98475E4BE4
S2144019C098475D4B984797F9052097F9061097F981
S2144019D007301846594B984797F9052097F906104F
S2144019E097F907301846554B9847534B9847524BF4
S2144019F0984797F9052097F9061097F90730184643
S214401A004E4B98474C4B98474B4B984797F9052079
S214401A1097F9061097F907301846484B9847464BB3
S214401A209847454B984797F9052097F9061097F938
S214401A3007301846414B98473F4B98473E4B984790
S214401A4097F9052097F9061097F9073018463B4B4B
S214401A509847394B9847384B984797F9052097F958
S214401A60061097F907301846344B984797F90520E3
S214401A7097F9061097F907301846304B984797F96C
S214401A80052097F9061097F9073018462B4B9847CC
S214401A9097F9052097F9061097F907301846274B0F
S214401AA0984797F9052097F9061097F90730184692
S214401AB0224B984797F9052097F9061097F9073073
S214401AC018461E4B984797F9052097F9061097F940
S214401AD007301846194B984797F9052097F906108E
S214401AE097F907301846154B9847134B9847124BB3
S214401AF09847114B9847104B98470F4B98470E4BBB
S214401B0098470D4B98470C4B98470B4B98470A4BBA
S214401B109847094B9847084B9847074B9847064BBA
S214401B209847054B9847044B9847034B984700BF48
S214401B300837BD4680BD00BFBD13400011144000AD
S214401B4080B582B000AF0346FB710B46BB711346AF
S214401B507B716F4B98476E4B98476D4B98476C4BD5
S214401B6098476B4B98476A4B9847694B9847684BE2
S214401B709847674B9847664B9847654B9847644BE2
S214401B809847634B9847624B9847614B9847604BE2
S214401B9098475F4B984797F9052097F9061097F9AD
S214401BA0073018465B4B984797F9052097F906107B
S214401BB097F907301846574B984797F9052097F9F5
S214401BC0061097F907301846524B984797F9052064
S214401BD097F9061097F9073018464E4B98474C4BE6
S214401BE098474B4B98474A4B9847494B9847484BE2
S214401BF09847474B984797F9052097F9061097F965
S214401C0007301846434B9847414B9847404B9847B8
S214401C103F4B98473E4B98473D4B98473C4B9847E1
S214401C203B4B98473A4B984797F9052097F906104B
S214401C3097F907301846374B9847354B9847344BFB
S214401C409847334B984797F9052097F9061097F928
S214401C50073018462F4B984797F9052097F90610F6
S214401C6097F9073018462B4B984797F9052097F970
S214401C70061097F907301846264B984797F90520DF
S214401C8097F9061097F907301846224B984797F968
S214401C90052097F9061097F9073018461D4B9847C8
S214401CA097F9052097F9061097F907301846194B0B
S214401CB0984797F9052097F9061097F90730184680
S214401CC0144B9847124B9847114B9847104B9847E0
S214401CD00F4B98470E4B98470D4B98470C4B9847E1
S214401CE00B4B98470A4B9847094B9847084B9847E1
S214401CF0074B9847064B9847054B9847044B9847E1
S214401D00034B9847024B984700BF0837BD4680BDF7
S214401D10BD1340001114400080B582B000AF0346AA
S214401D20FB710B46BB7113467B717A4B9847794BD8
S214401D309847784B9847774B9847764B9847754BDC
S214401D409847744B9847734B9847724B9847714BDC
S214401D509847704B98476F4B98476E4B98476D4BDC
S214401D6098476C4B98476B4B98476A4B984797F900
S214401D70052097F9061097F907301846664B98479E
S214401D8097F9052097F9061097F907301846624BE1
S214401D90984797F9052097F9061097F9073018469F
S214401DA05D4B984797F9052097F9061097F9073045
S214401DB01846594B9847574B9847564B984797F96C
S214401DC0052097F9061097F907301846524B984762
S214401DD097F9052097F9061097F9073018464E4BA5
S214401DE098474C4B98474B4B984797F9052097F99F
S214401DF0061097F907301846474B9847454B984783
S214401E00444B984797F9052097F9061097F90730FD
S214401E101846414B98473F4B98473E4B984797F953
S214401E20052097F9061097F9073018463A4B984719
S214401E30384B9847374B984797F9052097F906103F
S214401E4097F907301846344B9847324B9847314BF2
S214401E50984797F9052097F9061097F907301846DE
S214401E602D4B984797F9052097F9061097F90730B4
S214401E701846294B984797F9052097F9061097F981
S214401E8007301846244B984797F9052097F90610CF
S214401E9097F907301846204B984797F9052097F949
S214401EA0061097F9073018461B4B9847194B98472A
S214401EB0184B984797F9052097F9061097F9073079
S214401EC01846154B9847134B9847124B9847114B5B
S214401ED09847104B98470F4B98470E4B98470D4BDB
S214401EE098470C4B98470B4B98470A4B9847094BDB
S214401EF09847084B9847074B9847064B9847054BDB
S214401F009847044B9847034B984700BF0837BD4651
S214401F1080BD00BFBD1340001114400080B582B0A4
S214401F2000AF0346FB710B46BB7113467B71814B7A
S214401F309847804B98477F4B98477E4B98477D4BBA
S214401F4098477C4B98477B4B98477A4B9847794BBA
S214401F509847784B9847774B9847764B9847754BBA
S214401F609847744B9847734B9847724B9847714BBA
S214401F70984797F9052097F9061097F907301846BD
S214401F806D4B984797F9052097F9061097F9073053
S214401F901846694B984797F9052097F9061097F920
S214401FA007301846644B984797F9052097F906106E
S214401FB097F907301846604B984797F9052097F9E8
S214401FC0061097F9073018465B4B984797F9052057
S214401FD097F9061097F907301846574B984797F9E0
S214401FE0052097F9061097F907301846524B984740
S214401FF097F9052097F9061097F9073018464E4B83
S21440200098474C4B98474B4B984797F9052097F97C
S214402010061097F907301846474B9847454B984760
S214402020444B984797F9052097F9061097F90730DB
S2144020301846414B98473F4B98473E4B984797F931
S214402040052097F9061097F9073018463A4B9847F7
S214402050384B9847374B984797F9052097F906101D
S21440206097F907301846344B9847324B9847314BD0
S214402070984797F9052097F9061097F907301846BC
S2144020802D4B984797F9052097F9061097F9073092
S2144020901846294B984797F9052097F9061097F95F
S2144020A007301846244B984797F9052097F90610AD
S2144020B097F907301846204B984797F9052097F927
S2144020C0061097F9073018461B4B9847194B984708
S2144020D0184B984797F9052097F9061097F9073057
S2144020E01846154B9847134B9847124B9847114B39
S2144020F09847104B98470F4B98470E4B98470D4BB9
S21440210098470C4B98470B4B98470A4B9847094BB8
S2144021109847084B9847074B9847064B9847054BB8
S2144021209847044B9847034B984700BF0837BD462F
S21440213080BD00BFBD1340001114400080B582B082
S21440214000AF0346FB710B46BB7113467B71654B74
S2144021509847644B9847634B9847624B9847614B08
S2144021609847604B98475F4B98475E4B98475D4B08
S21440217098475C4B98475B4B98475A4B9847594B08
S2144021809847584B9847574B9847564B9847554B08
S214402190984797F9052097F9061097F9073018469B
S2144021A0514B98474F4B98474E4B98474D4B984707
S2144021B04C4B98474B4B98474A4B9847494B984708
S2144021C0484B9847474B9847464B9847454B984708
S2144021D0444B984797F9052097F9061097F907302A
S2144021E01846414B98473F4B98473E4B984797F980
S2144021F0052097F9061097F9073018463A4B984746
S214402200384B9847374B9847364B9847354B984707
S214402210344B9847334B984797F9052097F9061063
S21440222097F907301846304B984797F9052097F9A5
S214402230061097F9073018462B4B984797F9052014
S21440224097F9061097F907301846274B984797F99D
S214402250052097F9061097F907301846224B9847FD
S21440226097F9052097F9061097F9073018461E4B40
S214402270984797F9052097F9061097F907301846BA
S214402280194B984797F9052097F9061097F90730A4
S2144022901846154B9847134B9847124B9847114B87
S2144022A09847104B98470F4B98470E4B98470D4B07
S2144022B098470C4B98470B4B98470A4B9847094B07
S2144022C09847084B9847074B9847064B9847054B07
S2144022D09847044B9847034B984700BF0837BD467E
S2144022E080BD00BFBD1340001114400080B582B0D1
S2144022F000AF0346FB710B46BB7113467B71884BA0
S2144023009847874B9847864B9847854B9847844BCA
S2144023109847834B9847824B9847814B9847804BCA
S21440232098477F4B98477E4B98477D4B98477C4BCA
S21440233098477B4B98477A4B9847794B9847784BCA
S214402340984797F9052097F9061097F907301846E9
S214402350744B984797F9052097F9061097F9073078
S2144023601846704B984797F9052097F9061097F945
S214402370073018466B4B984797F9052097F9061093
S21440238097F907301846674B984797F9052097F90D
S214402390061097F907301846624B984797F905207C
S2144023A097F9061097F9073018465E4B984797F905
S2144023B0052097F9061097F907301846594B984765
S2144023C097F9052097F9061097F907301846554BA8
S2144023D09847534B9847524B984797F9052097F99B
S2144023E0061097F9073018464E4B98474C4B98477F
S2144023F04B4B984797F9052097F9061097F9073001
S2144024001846484B9847464B9847454B984797F948
S214402410052097F9061097F907301846414B98471C
S2144024203F4B98473E4B984797F9052097F906103B
S21440243097F9073018463B4B9847394B9847384BE7
S214402440984797F9052097F9061097F907301846E8
S214402450344B984797F9052097F9061097F90730B7
S2144024601846304B984797F9052097F9061097F984
S214402470073018462B4B984797F9052097F90610D2
S21440248097F907301846274B984797F9052097F94C
S214402490061097F907301846224B984797F90520BB
S2144024A097F9061097F9073018461E4B984797F944
S2144024B0052097F9061097F907301846194B9847A4
S2144024C097F9052097F9061097F907301846154BE7
S2144024D09847134B9847124B9847114B9847104BC9
S2144024E098470F4B98470E4B98470D4B98470C4BC9
S2144024F098470B4B98470A4B9847094B9847084BC9
S2144025009847074B9847064B9847054B9847044BC8
S2144025109847034B984700BF0837BD4680BD00BF6D
S214402520BD1340001114400080B582B000AF034692
S214402530FB710B46BB7113467B71814B9847804BB2
S21440254098477F4B98477E4B98477D4B98477C4BA8
S21440255098477B4B98477A4B9847794B9847784BA8
S2144025609847774B9847764B9847754B9847744BA8
S2144025709847734B9847724B9847714B984797F9D3
S214402580052097F9061097F9073018466D4B98477F
S21440259097F9052097F9061097F907301846694BC2
S2144025A0984797F9052097F9061097F90730184687
S2144025B0644B984797F9052097F9061097F9073026
S2144025C01846604B98475E4B98475D4B984797F93F
S2144025D0052097F9061097F907301846594B984743
S2144025E097F9052097F9061097F907301846554B86
S2144025F09847534B9847524B984797F9052097F979
S214402600061097F9073018464E4B98474C4B98475C
S2144026104B4B984797F9052097F9061097F90730DE
S2144026201846484B9847464B9847454B984797F926
S214402630052097F9061097F907301846414B9847FA
S2144026403F4B98473E4B984797F9052097F9061019
S21440265097F9073018463B4B9847394B9847384BC5
S214402660984797F9052097F9061097F907301846C6
S214402670344B984797F9052097F9061097F9073095
S2144026801846304B984797F9052097F9061097F962
S214402690073018462B4B984797F9052097F90610B0
S2144026A097F907301846274B984797F9052097F92A
S2144026B0061097F907301846224B984797F9052099
S2144026C097F9061097F9073018461E4B984797F922
S2144026D0052097F9061097F907301846194B984782
S2144026E097F9052097F9061097F907301846154BC5
S2144026F09847134B9847124B9847114B9847104BA7
S21440270098470F4B98470E4B98470D4B98470C4BA6
S21440271098470B4B98470A4B9847094B9847084BA6
S2144027209847074B9847064B9847054B9847044BA6
S2144027309847034B984700BF0837BD4680BD00BF4B
S214402740BD1340001114400080B582B000AF034670
S214402750FB710B46BB7113467B71814B9847804B90
S21440276098477F4B98477E4B98477D4B98477C4B86
S21440277098477B4B98477A4B9847794B9847784B86
S2144027809847774B9847764B9847754B9847744B86
S2144027909847734B9847724B9847714B984797F9B1
S2144027A0052097F9061097F9073018466D4B98475D
S2144027B097F9052097F9061097F907301846694BA0
S2144027C0984797F9052097F9061097F90730184665
S2144027D0644B984797F9052097F9061097F9073004
S2144027E01846604B984797F9052097F9061097F9D1
S2144027F0073018465B4B984797F9052097F906101F
S21440280097F907301846574B984797F9052097F998
S214402810061097F907301846524B984797F9052007
S21440282097F9061097F9073018464E4B98474C4B89
S21440283098474B4B98474A4B9847494B9847484B85
S214402840984797F9052097F9061097F907301846E4
S214402850444B9847424B9847414B984797F9052039
S21440286097F9061097F9073018463E4B98473C4B69
S21440287098473B4B98473A4B9847394B9847384B85
S214402880984797F9052097F9061097F907301846A4
S214402890344B984797F9052097F9061097F9073073
S2144028A01846304B984797F9052097F9061097F940
S2144028B0073018462B4B984797F9052097F906108E
S2144028C097F907301846274B984797F9052097F908
S2144028D0061097F907301846224B984797F9052077
S2144028E097F9061097F9073018461E4B984797F900
S2144028F0052097F9061097F907301846194B984760
S21440290097F9052097F9061097F907301846154BA2
S2144029109847134B9847124B9847114B9847104B84
S21440292098470F4B98470E4B98470D4B98470C4B84
S21440293098470B4B98470A4B9847094B9847084B84
S2144029409847074B9847064B9847054B9847044B84
S2144029509847034B984700BF0837BD4680BD00BF29
S214402960BD1340001114400080B582B000AF03464E
S214402970FB710B46BB7113467B71AB4B9847AA4B1A
S2144029809847A94B9847A84B9847A74B9847A64BBC
S2144029909847A54B9847A44B984797F9052097F931
S2144029A0061097F907301846A04B984797F9052028
S2144029B097F9061097F9073018469C4B984797F9B1
S2144029C0052097F9061097F907301846974B984711
S2144029D097F9052097F9061097F907301846934B54
S2144029E0984797F9052097F9061097F90730184643
S2144029F08E4B984797F9052097F9061097F90730B8
S214402A0018468A4B9847884B9847874B9847864B3B
S214402A10984797F9052097F9061097F90730184612
S214402A20824B984797F9052097F9061097F9073093
S214402A3018467E4B984797F9052097F9061097F960
S214402A4007301846794B984797F9052097F90610AE
S214402A5097F907301846754B984797F9052097F928
S214402A60061097F907301846704B984797F9052097
S214402A7097F9061097F9073018466C4B984797F920
S214402A80052097F9061097F907301846674B984780
S214402A90654B9847644B9847634B984797F9052092
S214402AA097F9061097F907301846604B98475E4BE3
S214402AB098475D4B984797F9052097F9061097F980
S214402AC007301846594B9847574B9847564B9847A8
S214402AD097F9052097F9061097F907301846534B93
S214402AE09847514B9847504B984797F9052097F988
S214402AF0061097F9073018464C4B98474A4B98476C
S214402B00494B9847484B984797F9052097F9061040
S214402B1097F907301846454B984797F9052097F997
S214402B20061097F907301846404B984797F9052006
S214402B3097F9061097F9073018463C4B984797F98F
S214402B40052097F9061097F907301846374B9847EF
S214402B5097F9052097F9061097F907301846334B32
S214402B60984797F9052097F9061097F907301846C1
S214402B702E4B984797F9052097F9061097F9073096
S214402B8018462A4B9847284B9847274B9847264B3A
S214402B90984797F9052097F9061097F90730184691
S214402BA0224B984797F9052097F9061097F9073072
S214402BB018461E4B984797F9052097F9061097F93F
S214402BC007301846194B984797F9052097F906108D
S214402BD097F907301846154B984797F9052097F907
S214402BE0061097F907301846104B984797F9052076
S214402BF097F9061097F9073018460C4B98470A4B3A
S214402C009847094B9847084B9847074B9847064BB9
S214402C109847054B9847044B9847034B984700BF47
S214402C200837BD4680BD00BFBD13400011144000AC
S214402C3080B582B000AF0346FB710B46BB711346AE
S214402C407B71AE4B9847AD4B9847AC4B9847AB4BD8
S214402C509847AA4B9847A94B9847A84B9847A74BE5
S214402C60984797F9052097F9061097F907301846C0
S214402C70A34B984797F9052097F9061097F9073020
S214402C8018469F4B984797F9052097F9061097F9ED
S214402C90073018469A4B984797F9052097F906103B
S214402CA097F907301846964B984797F9052097F9B5
S214402CB0061097F907301846914B984797F9052024
S214402CC097F9061097F9073018468D4B984797F9AD
S214402CD0052097F9061097F907301846884B98470D
S214402CE0864B9847854B984797F9052097F90610E5
S214402CF097F907301846824B984797F9052097F979
S214402D00061097F9073018467D4B984797F90520E7
S214402D1097F9061097F907301846794B984797F970
S214402D20052097F9061097F907301846744B9847D0
S214402D3097F9052097F9061097F907301846704B13
S214402D40984797F9052097F9061097F907301846DF
S214402D506B4B984797F9052097F9061097F9073077
S214402D601846674B984797F9052097F9061097F944
S214402D7007301846624B9847604B98475F4B9847DA
S214402D8097F9052097F9061097F9073018465C4BD7
S214402D9098475A4B9847594B984797F9052097F9C3
S214402DA0061097F907301846554B9847534B9847A7
S214402DB0524B984797F9052097F9061097F9073030
S214402DC018464F4B98474D4B98474C4B984797F96A
S214402DD0052097F9061097F907301846484B98474C
S214402DE0464B9847454B984797F9052097F9061064
S214402DF097F907301846424B984797F9052097F9B8
S214402E00061097F9073018463D4B984797F9052026
S214402E1097F9061097F907301846394B984797F9AF
S214402E20052097F9061097F907301846344B98470F
S214402E3097F9052097F9061097F907301846304B52
S214402E40984797F9052097F9061097F907301846DE
S214402E502B4B984797F9052097F9061097F90730B6
S214402E601846274B984797F9052097F9061097F983
S214402E7007301846224B9847204B98471F4B984799
S214402E801E4B984797F9052097F9061097F9073093
S214402E9018461B4B984797F9052097F9061097F95F
S214402EA007301846164B9847144B984797F9052015
S214402EB097F9061097F907301846114B984797F937
S214402EC0052097F9061097F9073018460C4B984797
S214402ED00A4B9847094B9847084B9847074B9847E3
S214402EE0064B9847054B9847044B9847034B9847E3
S214402EF0024B984700BF0837BD4680BDBD13400013
S214402F001114400080B582B000AF0346FB710B46FB
S214402F10BB7113467B718F4B98478E4B98478D4BB2
S214402F2098478C4B98478B4B98478A4B9847894B8A
S214402F309847884B9847874B984797F9052097F9C5
S214402F40061097F907301846834B984797F905209F
S214402F5097F9061097F9073018467F4B984797F928
S214402F60052097F9061097F9073018467A4B984788
S214402F7097F9052097F9061097F907301846764BCB
S214402F80984797F9052097F9061097F9073018469D
S214402F90714B98476F4B98476E4B98476D4B984789
S214402FA097F9052097F9061097F9073018466A4BA7
S214402FB0984797F9052097F9061097F9073018466D
S214402FC0654B984797F9052097F9061097F907300B
S214402FD01846614B984797F9052097F9061097F9D8
S214402FE0073018465C4B984797F9052097F9061026
S214402FF097F907301846584B984797F9052097F9A0
S214403000061097F907301846534B984797F905200E
S21440301097F9061097F9073018464F4B984797F997
S214403020052097F9061097F9073018464A4B9847F7
S214403030484B9847474B9847464B9847454B984789
S214403040444B984797F9052097F9061097F90730AB
S2144030501846414B98473F4B98473E4B984797F901
S214403060052097F9061097F9073018463A4B9847C7
S214403070384B9847374B9847364B9847354B984789
S214403080344B984797F9052097F9061097F907307B
S2144030901846314B984797F9052097F9061097F947
S2144030A0073018462C4B984797F9052097F9061095
S2144030B097F907301846284B9847264B9847254B94
S2144030C09847244B984797F9052097F9061097F9A3
S2144030D007301846204B984797F9052097F9061071
S2144030E097F9073018461C4B98471A4B9847194B88
S2144030F09847184B984797F9052097F9061097F97F
S21440310007301846144B9847124B9847114B984730
S214403110104B984797F9052097F9061097F907300E
S21440312018460D4B98470B4B98470A4B9847094B08
S2144031309847084B9847074B9847064B9847054B88
S2144031409847044B9847034B984700BF0837BD46FF
S21440315080BD00BFBD1340001114400080B582B052
S21440316000AF0346FB710B46BB7113467B71AB4BFE
S2144031709847AA4B9847A94B9847A84B9847A74BC0
S2144031809847A64B9847A54B9847A44B984797F91E
S214403190052097F9061097F907301846A04B984730
S2144031A097F9052097F9061097F9073018469C4B73
S2144031B0984797F9052097F9061097F9073018466B
S2144031C0974B984797F9052097F9061097F90730D7
S2144031D01846934B984797F9052097F9061097F9A4
S2144031E0073018468E4B984797F9052097F90610F2
S2144031F097F9073018468A4B984797F9052097F96C
S214403200061097F907301846854B9847834B9847E2
S214403210824B984797F9052097F9061097F907309B
S21440322018467F4B984797F9052097F9061097F967
S214403230073018467A4B984797F9052097F90610B5
S21440324097F907301846764B984797F9052097F92F
S214403250061097F907301846714B984797F905209E
S21440326097F9061097F9073018466D4B984797F927
S214403270052097F9061097F907301846684B984787
S21440328097F9052097F9061097F907301846644BCA
S214403290984797F9052097F9061097F9073018468A
S2144032A05F4B98475D4B98475C4B98475B4B9847BE
S2144032B05A4B9847594B984797F9052097F9061067
S2144032C097F907301846564B9847544B9847534BF8
S2144032D0984797F9052097F9061097F9073018464A
S2144032E04F4B98474D4B98474C4B98474B4B9847BE
S2144032F04A4B9847494B984797F9052097F9061047
S21440330097F907301846464B984797F9052097F99E
S214403310061097F907301846414B984797F905200D
S21440332097F9061097F9073018463D4B984797F996
S214403330052097F9061097F907301846384B9847F6
S21440334097F9052097F9061097F907301846344B39
S214403350984797F9052097F9061097F907301846C9
S2144033602F4B984797F9052097F9061097F907309D
S21440337018462B4B984797F9052097F9061097F96A
S21440338007301846264B9847244B9847234B984778
S214403390224B984797F9052097F9061097F907307A
S2144033A018461F4B984797F9052097F9061097F946
S2144033B0073018461A4B984797F9052097F9061094
S2144033C097F907301846164B984797F9052097F90E
S2144033D0061097F907301846114B984797F905207D
S2144033E097F9061097F9073018460D4B98470B4B40
S2144033F098470A4B9847094B9847084B9847074BBE
S2144034009847064B9847054B9847044B9847034BBD
S214403410984700BF0837BD4680BD00BFBD1340007B
S2144034201114400080B582B000AF0346FB710B46D6
S214403430BB7113467B71994B9847984B9847974B6F
S2144034409847964B9847954B9847944B9847934B3D
S2144034509847924B984797F9052097F9061097F9A1
S214403460073018468E4B984797F9052097F906106F
S21440347097F9073018468A4B984797F9052097F9E9
S214403480061097F907301846854B984797F9052058
S21440349097F9061097F907301846814B984797F9E1
S2144034A0052097F9061097F9073018467C4B984741
S2144034B097F9052097F9061097F907301846784B84
S2144034C0984797F9052097F9061097F90730184658
S2144034D0734B9847714B9847704B984797F9052020
S2144034E097F9061097F9073018466D4B984797F9A5
S2144034F0052097F9061097F907301846684B984705
S21440350097F9052097F9061097F907301846644B47
S214403510984797F9052097F9061097F90730184607
S2144035205F4B984797F9052097F9061097F90730AB
S21440353018465B4B984797F9052097F9061097F978
S21440354007301846564B984797F9052097F90610C6
S21440355097F907301846524B984797F9052097F940
S214403560061097F9073018464D4B98474B4B9847EF
S2144035704A4B984797F9052097F9061097F9073070
S2144035801846474B9847454B9847444B984797F9BA
S214403590052097F9061097F907301846404B98478C
S2144035A03E4B98473D4B984797F9052097F90610AC
S2144035B097F9073018463A4B9847384B9847374B59
S2144035C0984797F9052097F9061097F90730184657
S2144035D0334B9847314B9847304B984797F90520DF
S2144035E097F9061097F9073018462D4B984797F9E4
S2144035F0052097F9061097F907301846284B984744
S214403600264B9847254B984797F9052097F906107B
S21440361097F907301846224B9847204B98471F4B40
S214403620984797F9052097F9061097F907301846F6
S2144036301B4B9847194B9847184B984797F90520C6
S21440364097F9061097F907301846154B9847134BCD
S2144036509847124B9847114B9847104B98470F4B3B
S214403660984797F9052097F9061097F907301846B6
S2144036700B4B9847094B9847084B9847074B98473A
S214403680064B9847054B9847044B9847034B98473B
S214403690024B984700BF0837BD4680BDBD1340006B
S2144036A01114400080B582B000AF0346FB710B4654
S2144036B0BB7113467B718B4B98478A4B9847894B17
S2144036C09847884B9847874B9847864B9847854BF3
S2144036D09847844B984797F9052097F9061097F92D
S2144036E007301846804B984797F9052097F90610FB
S2144036F097F9073018467C4B984797F9052097F975
S214403700061097F907301846774B984797F90520E3
S21440371097F9061097F907301846734B984797F96C
S214403720052097F9061097F9073018466E4B9847CC
S21440373097F9052097F9061097F9073018466A4B0F
S214403740984797F9052097F9061097F907301846D5
S214403750654B9847634B9847624B984797F90520C7
S21440376097F9061097F9073018465F4B984797F930
S214403770052097F9061097F9073018465A4B984790
S21440378097F9052097F9061097F907301846564BD3
S214403790984797F9052097F9061097F90730184685
S2144037A0514B984797F9052097F9061097F9073037
S2144037B018464D4B984797F9052097F9061097F904
S2144037C007301846484B984797F9052097F9061052
S2144037D097F907301846444B9847424B9847414B19
S2144037E09847404B984797F9052097F9061097F960
S2144037F0073018463C4B98473A4B9847394B9847C2
S21440380097F9052097F9061097F907301846364B72
S2144038109847344B9847334B984797F9052097F984
S214403820061097F9073018462F4B98472D4B984768
S2144038302C4B984797F9052097F9061097F90730CB
S2144038401846294B9847274B9847264B9847254B71
S2144038509847244B9847234B9847224B984797F9CD
S214403860052097F9061097F9073018461E4B9847DB
S2144038701C4B98471B4B984797F9052097F906101D
S21440388097F907301846184B9847164B9847154BEC
S214403890984797F9052097F9061097F90730184684
S2144038A0114B98470F4B98470E4B98470D4B9847F0
S2144038B00C4B98470B4B98470A4B9847094B9847F1
S2144038C0084B9847074B9847064B9847054B9847F1
S2144038D0044B9847034B9847024B984700BF08371E
S2144038E0BD4680BDBD1340001114400080B582B077
S2144038F000AF0346FB710B46BB7113467B71994B79
S2144039009847984B9847974B9847964B9847954B70
S2144039109847944B9847934B9847924B9847914B70
S214403920984797F9052097F9061097F907301846F3
S2144039308D4B984797F9052097F9061097F9073069
S2144039401846894B984797F9052097F9061097F936
S21440395007301846844B984797F9052097F9061084
S21440396097F907301846804B984797F9052097F9FE
S214403970061097F9073018467B4B9847794B98477F
S214403980784B9847774B984797F9052097F9061054
S21440399097F907301846744B984797F9052097F9DA
S2144039A0061097F9073018466F4B984797F9052049
S2144039B097F9061097F9073018466B4B984797F9D2
S2144039C0052097F9061097F907301846664B984732
S2144039D097F9052097F9061097F907301846624B75
S2144039E0984797F9052097F9061097F90730184633
S2144039F05D4B984797F9052097F9061097F90730D9
S214403A001846594B984797F9052097F9061097F9A5
S214403A1007301846544B9847524B9847514B984757
S214403A20504B98474F4B98474E4B984797F9052031
S214403A3097F9061097F9073018464B4B9847494B6D
S214403A409847484B984797F9052097F9061097F9F5
S214403A5007301846444B9847424B9847414B984747
S214403A60404B984797F9052097F9061097F9073085
S214403A7018463D4B98473B4B984797F9052097F992
S214403A80061097F907301846374B984797F90520A0
S214403A9097F9061097F907301846334B984797F929
S214403AA0052097F9061097F9073018462E4B984789
S214403AB097F9052097F9061097F9073018462A4BCC
S214403AC09847284B9847274B984797F9052097F9EA
S214403AD0061097F907301846234B984797F9052064
S214403AE097F9061097F9073018461F4B98471D4B15
S214403AF098471C4B98471B4B984797F9052097F9D2
S214403B00061097F907301846174B9847154B9847B5
S214403B10144B984797F9052097F9061097F9073000
S214403B201846114B984797F9052097F9061097F9CC
S214403B30073018460C4B98470A4B9847094B98470E
S214403B40084B9847074B9847064B9847054B98476E
S214403B50044B9847034B9847024B984700BF08379B
S214403B60BD4680BDBD1340001114400080B582B0F4
S214403B7000AF0346FB710B46BB7113467B71AB4BE4
S214403B809847AA4B9847A94B9847A84B9847A74BA6
S214403B909847A64B9847A54B9847A44B984797F904
S214403BA0052097F9061097F907301846A04B984716
S214403BB097F9052097F9061097F9073018469C4B59
S214403BC0984797F9052097F9061097F90730184651
S214403BD0974B984797F9052097F9061097F90730BD
S214403BE01846934B984797F9052097F9061097F98A
S214403BF0073018468E4B984797F9052097F90610D8
S214403C0097F9073018468A4B984797F9052097F951
S214403C10061097F907301846854B9847834B9847C8
S214403C20824B984797F9052097F9061097F9073081
S214403C3018467F4B984797F9052097F9061097F94D
S214403C40073018467A4B984797F9052097F906109B
S214403C5097F907301846764B984797F9052097F915
S214403C60061097F907301846714B984797F9052084
S214403C7097F9061097F9073018466D4B984797F90D
S214403C80052097F9061097F907301846684B98476D
S214403C9097F9052097F9061097F907301846644BB0
S214403CA09847624B9847614B9847604B984797F9BF
S214403CB0052097F9061097F9073018465C4B984749
S214403CC05A4B9847594B9847584B9847574B9847A5
S214403CD0564B9847554B9847544B9847534B9847A5
S214403CE097F9052097F9061097F907301846504B74
S214403CF098474E4B98474D4B98474C4B984797F9AB
S214403D00052097F9061097F907301846484B98470C
S214403D1097F9052097F9061097F907301846444B4F
S214403D20984797F9052097F9061097F907301846EF
S214403D303F4B984797F9052097F9061097F90730B3
S214403D4018463B4B984797F9052097F9061097F980
S214403D5007301846364B984797F9052097F90610CE
S214403D6097F907301846324B984797F9052097F948
S214403D70061097F9073018462D4B98472B4B984717
S214403D802A4B984797F9052097F9061097F9073078
S214403D901846274B984797F9052097F9061097F944
S214403DA007301846224B984797F9052097F9061092
S214403DB097F9073018461E4B984797F9052097F90C
S214403DC0061097F907301846194B984797F905207B
S214403DD097F9061097F907301846154B984797F904
S214403DE0052097F9061097F907301846104B984764
S214403DF097F9052097F9061097F9073018460C4BA7
S214403E0098470A4B9847094B9847084B9847074BA3
S214403E109847064B9847054B9847044B9847034BA3
S214403E20984700BF0837BD4680BD00BFBD13400061
S214403E301114400080B582B000AF0346FB710B46BC
S214403E40BB7113467B71814B9847804B98477F4B9D
S214403E5098477E4B98477D4B98477C4B98477B4B83
S214403E6098477A4B9847794B9847784B9847774B83
S214403E709847764B9847754B9847744B9847734B83
S214403E809847724B9847714B984797F9052097F992
S214403E90061097F9073018466D4B98476B4B984776
S214403EA06A4B9847694B9847684B9847674B984783
S214403EB097F9052097F9061097F907301846644B8E
S214403EC0984797F9052097F9061097F9073018464E
S214403ED05F4B984797F9052097F9061097F90730F2
S214403EE018465B4B984797F9052097F9061097F9BF
S214403EF007301846564B984797F9052097F906100D
S214403F0097F907301846524B984797F9052097F986
S214403F10061097F9073018464D4B984797F90520F5
S214403F2097F9061097F907301846494B984797F97E
S214403F30052097F9061097F907301846444B9847DE
S214403F40424B9847414B984797F9052097F90610FA
S214403F5097F9073018463E4B984797F9052097F94A
S214403F60061097F907301846394B984797F90520B9
S214403F7097F9061097F907301846354B984797F942
S214403F80052097F9061097F907301846304B9847A2
S214403F9097F9052097F9061097F9073018462C4BE5
S214403FA0984797F9052097F9061097F9073018466D
S214403FB0274B984797F9052097F9061097F9073049
S214403FC01846234B984797F9052097F9061097F916
S214403FD0073018461E4B98471C4B98471B4B984734
S214403FE01A4B9847194B9847184B984797F905200E
S214403FF097F9061097F907301846154B9847134B14
S2144040009847124B9847114B9847104B98470F4B81
S21440401098470E4B98470D4B98470C4B98470B4B81
S21440402098470A4B9847094B9847084B9847074B81
S2144040309847064B9847054B9847044B9847034B81
S214404040984700BF0837BD4680BD00BFBD1340003F
S2144040501114400080B582B000AF0346FB710B469A
S214404060BB7113467B718B4B98478A4B9847894B5D
S2144040709847884B9847874B9847864B9847854B39
S2144040809847844B9847834B984797F9052097F96C
S214404090061097F9073018467F4B984797F9052042
S2144040A097F9061097F9073018467B4B9847794B97
S2144040B09847784B9847774B9847764B9847754B39
S2144040C09847744B9847734B9847724B9847714B39
S2144040D09847704B984797F9052097F9061097F937
S2144040E0073018466C4B984797F9052097F9061005
S2144040F097F907301846684B984797F9052097F97F
S214404100061097F907301846634B984797F90520ED
S21440411097F9061097F9073018465F4B98475D4B5E
S21440412098475C4B98475B4B98475A4B9847594B38
S214404130984797F9052097F9061097F907301846DB
S214404140554B9847534B9847524B984797F90520FD
S21440415097F9061097F9073018464F4B984797F946
S214404160052097F9061097F9073018464A4B9847A6
S21440417097F9052097F9061097F907301846464BE9
S214404180984797F9052097F9061097F9073018468B
S214404190414B984797F9052097F9061097F907304D
S2144041A018463D4B984797F9052097F9061097F91A
S2144041B007301846384B984797F9052097F9061068
S2144041C097F907301846344B9847324B984797F93B
S2144041D0052097F9061097F9073018462E4B984752
S2144041E097F9052097F9061097F9073018462A4B95
S2144041F0984797F9052097F9061097F9073018461B
S214404200254B984797F9052097F9061097F90730F8
S2144042101846214B984797F9052097F9061097F9C5
S214404220073018461C4B984797F9052097F9061013
S21440423097F907301846184B9847164B9847154B32
S214404240984797F9052097F9061097F907301846CA
S214404250114B98470F4B98470E4B98470D4B984736
S2144042600C4B98470B4B98470A4B9847094B984737
S214404270084B9847074B9847064B9847054B984737
S214404280044B9847034B9847024B984700BF083764
S214404290BD4680BDBD1340001114400080B582B0BD
S2144042A000AF0346FB710B46BB7113467B71A04BB8
S2144042B098479F4B98479E4B98479D4B98479C4B9B
S2144042C098479B4B98479A4B9847994B984797F9EE
S2144042D0052097F9061097F907301846954B9847EA
S2144042E097F9052097F9061097F907301846914B2D
S2144042F0984797F9052097F9061097F9073018461A
S2144043008C4B984797F9052097F9061097F9073090
S2144043101846884B984797F9052097F9061097F95D
S21440432007301846834B984797F9052097F90610AB
S21440433097F9073018467F4B984797F9052097F925
S214404340061097F9073018467A4B9847784B9847A7
S214404350774B984797F9052097F9061097F9073055
S2144043601846744B984797F9052097F9061097F921
S214404370073018466F4B984797F9052097F906106F
S21440438097F9073018466B4B984797F9052097F9E9
S214404390061097F907301846664B984797F9052058
S2144043A097F9061097F907301846624B984797F9E1
S2144043B0052097F9061097F9073018465D4B984741
S2144043C097F9052097F9061097F907301846594B84
S2144043D09847574B9847564B984797F9052097F973
S2144043E0061097F907301846524B984797F905201C
S2144043F097F9061097F9073018464E4B984797F9A5
S214404400052097F9061097F907301846494B984704
S214404410474B9847464B9847454B9847444B984799
S214404420434B984797F9052097F9061097F90730B8
S2144044301846404B984797F9052097F9061097F984
S214404440073018463B4B9847394B984797F9052015
S21440445097F9061097F907301846364B984797F95C
S214404460052097F9061097F907301846314B9847BC
S2144044702F4B984797F9052097F9061097F907307C
S21440448018462C4B984797F9052097F9061097F948
S21440449007301846274B9847254B9847244B984754
S2144044A0234B984797F9052097F9061097F9073058
S2144044B01846204B984797F9052097F9061097F924
S2144044C0073018461B4B9847194B9847184B984748
S2144044D097F9052097F9061097F907301846154BB7
S2144044E09847134B9847124B9847114B9847104B99
S2144044F098470F4B984797F9052097F9061097F974
S214404500073018460B4B9847094B9847084B984737
S214404510074B9847064B9847054B9847044B984798
S214404520034B9847024B984700BF0837BD4680BDAF
S214404530BD1340001114400080B582B000AF034662
S214404540FB710B46BB7113467B71814B9847804B82
S21440455098477F4B98477E4B98477D4B98477C4B78
S21440456098477B4B98477A4B984797F9052097F999
S214404570061097F907301846764B984797F9052066
S21440458097F9061097F907301846724B984797F9EF
S214404590052097F9061097F9073018466D4B98474F
S2144045A097F9052097F9061097F907301846694B92
S2144045B0984797F9052097F9061097F90730184657
S2144045C0644B984797F9052097F9061097F90730F6
S2144045D01846604B984797F9052097F9061097F9C3
S2144045E0073018465B4B9847594B9847584B984767
S2144045F097F9052097F9061097F907301846554B56
S214404600984797F9052097F9061097F90730184606
S214404610504B984797F9052097F9061097F90730B9
S21440462018464C4B984797F9052097F9061097F986
S21440463007301846474B984797F9052097F90610D4
S21440464097F907301846434B984797F9052097F94E
S214404650061097F9073018463E4B984797F90520BD
S21440466097F9061097F9073018463A4B984797F946
S214404670052097F9061097F907301846354B9847A6
S214404680334B9847324B9847314B9847304B984777
S2144046902F4B98472E4B98472D4B98472C4B984777
S2144046A02B4B98472A4B9847294B9847284B984777
S2144046B0274B9847264B984797F9052097F90610B9
S2144046C097F907301846234B984797F9052097F9EE
S2144046D0061097F9073018461E4B98471C4B9847CC
S2144046E01B4B98471A4B9847194B9847184B984777
S2144046F0174B9847164B9847154B9847144B984777
S214404700134B9847124B9847114B9847104B984776
S2144047100F4B984797F9052097F9061097F90730F9
S21440472018460C4B98470A4B9847094B9847084BF6
S2144047309847074B9847064B9847054B9847044B76
S2144047409847034B984700BF0837BD4680BD00BF1B
S214404750BD1340001114400080B582B000AF034640
S214404760FB710B46BB7113467B71B94B9847B84BF0
S2144047709847B74B9847B64B9847B54B9847B44B76
S2144047809847B34B9847B24B984797F9052097F907
S214404790061097F907301846AE4B984797F905200C
S2144047A097F9061097F907301846AA4B984797F995
S2144047B0052097F9061097F907301846A54B9847F5
S2144047C097F9052097F9061097F907301846A14B38
S2144047D0984797F9052097F9061097F90730184635
S2144047E09C4B984797F9052097F9061097F907309C
S2144047F01846984B984797F9052097F9061097F969
S21440480007301846934B9847914B9847904B98479C
S21440481097F9052097F9061097F9073018468D4BFB
S214404820984797F9052097F9061097F907301846E4
S214404830884B984797F9052097F9061097F907305F
S2144048401846844B984797F9052097F9061097F92C
S214404850073018467F4B984797F9052097F906107A
S21440486097F9073018467B4B984797F9052097F9F4
S214404870061097F907301846764B984797F9052063
S21440488097F9061097F907301846724B9847704BC1
S21440489098476F4B98476E4B98476D4B984797F99C
S2144048A0052097F9061097F907301846694B984740
S2144048B097F9052097F9061097F907301846654B83
S2144048C09847634B9847624B9847614B9847604B75
S2144048D098475F4B984797F9052097F9061097F940
S2144048E0073018465B4B984797F9052097F906100E
S2144048F097F907301846574B9847554B9847544BAF
S2144049009847534B9847524B9847514B9847504B74
S21440491098474F4B984797F9052097F9061097F90F
S214404920073018464B4B984797F9052097F90610DD
S21440493097F907301846474B9847454B9847444B9E
S2144049409847434B984797F9052097F9061097F9EB
S214404950073018463F4B984797F9052097F90610B9
S21440496097F9073018463B4B984797F9052097F933
S214404970061097F907301846364B984797F90520A2
S21440498097F9061097F907301846324B984797F92B
S214404990052097F9061097F9073018462D4B98478B
S2144049A097F9052097F9061097F907301846294BCE
S2144049B0984797F9052097F9061097F90730184653
S2144049C0244B984797F9052097F9061097F9073032
S2144049D01846204B984797F9052097F9061097F9FF
S2144049E0073018461B4B984797F9052097F906104D
S2144049F097F907301846174B984797F9052097F9C7
S214404A00061097F907301846124B984797F9052035
S214404A1097F9061097F9073018460E4B984797F9BE
S214404A20052097F9061097F907301846094B98471E
S214404A3097F9052097F9061097F907301846054B61
S214404A409847034B984700BF0837BD4680BD00BF18
S214404A50BD1340001114400080B582B000AF03463D
S214404A60FB710B46BB7113467B71B94B9847B84BED
S214404A709847B74B9847B64B9847B54B9847B44B73
S214404A809847B34B9847B24B984797F9052097F904
S214404A90061097F907301846AE4B984797F9052009
S214404AA097F9061097F907301846AA4B984797F992
S214404AB0052097F9061097F907301846A54B9847F2
S214404AC097F9052097F9061097F907301846A14B35
S214404AD0984797F9052097F9061097F90730184632
S214404AE09C4B984797F9052097F9061097F9073099
S214404AF01846984B984797F9052097F9061097F966
S214404B0007301846934B9847914B9847904B984799
S214404B1097F9052097F9061097F9073018468D4BF8
S214404B20984797F9052097F9061097F907301846E1
S214404B30884B984797F9052097F9061097F907305C
S214404B401846844B984797F9052097F9061097F929
S214404B50073018467F4B984797F9052097F9061077
S214404B6097F9073018467B4B984797F9052097F9F1
S214404B70061097F907301846764B984797F9052060
S214404B8097F9061097F907301846724B9847704BBE
S214404B9098476F4B98476E4B98476D4B984797F999
S214404BA0052097F9061097F907301846694B98473D
S214404BB097F9052097F9061097F907301846654B80
S214404BC09847634B9847624B9847614B9847604B72
S214404BD098475F4B984797F9052097F9061097F93D
S214404BE0073018465B4B984797F9052097F906100B
S214404BF097F907301846574B9847554B9847544BAC
S214404C009847534B9847524B9847514B984797F97C
S214404C10052097F9061097F9073018464D4B9847E8
S214404C2097F9052097F9061097F907301846494B2B
S214404C309847474B9847464B9847454B9847444B71
S214404C409847434B984797F9052097F9061097F9E8
S214404C50073018463F4B984797F9052097F90610B6
S214404C6097F9073018463B4B984797F9052097F930
S214404C70061097F907301846364B984797F905209F
S214404C8097F9061097F907301846324B984797F928
S214404C90052097F9061097F9073018462D4B984788
S214404CA097F9052097F9061097F907301846294BCB
S214404CB0984797F9052097F9061097F90730184650
S214404CC0244B984797F9052097F9061097F907302F
S214404CD01846204B984797F9052097F9061097F9FC
S214404CE0073018461B4B984797F9052097F906104A
S214404CF097F907301846174B984797F9052097F9C4
S214404D00061097F907301846124B984797F9052032
S214404D1097F9061097F9073018460E4B984797F9BB
S214404D20052097F9061097F907301846094B98471B
S214404D3097F9052097F9061097F907301846054B5E
S214404D409847034B984700BF0837BD4680BD00BF15
S214404D50BD1340001114400080B582B000AF03463A
S214404D60FB710B46BB7113467B71A44B9847A34B14
S214404D709847A24B9847A14B9847A04B98479F4BC4
S214404D8098479E4B98479D4B98479C4B984797F91A
S214404D90052097F9061097F907301846984B98471C
S214404DA097F9052097F9061097F907301846944B5F
S214404DB0984797F9052097F9061097F9073018464F
S214404DC08F4B984797F9052097F9061097F90730C3
S214404DD018468B4B984797F9052097F9061097F990
S214404DE007301846864B9847844B9847834B9847DE
S214404DF0824B984797F9052097F9061097F90730A0
S214404E0018467F4B984797F9052097F9061097F96B
S214404E10073018467A4B984797F9052097F90610B9
S214404E2097F907301846764B984797F9052097F933
S214404E30061097F907301846714B984797F90520A2
S214404E4097F9061097F9073018466D4B984797F92B
S214404E50052097F9061097F907301846684B98478B
S214404E6097F9052097F9061097F907301846644BCE
S214404E70984797F9052097F9061097F9073018468E
S214404E805F4B98475D4B98475C4B98475B4B9847C2
S214404E905A4B9847594B984797F9052097F906106B
S214404EA097F907301846564B9847544B9847534BFC
S214404EB0984797F9052097F9061097F9073018464E
S214404EC04F4B98474D4B98474C4B98474B4B9847C2
S214404ED04A4B9847494B984797F9052097F906104B
S214404EE097F907301846464B984797F9052097F9A3
S214404EF0061097F907301846414B984797F9052012
S214404F0097F9061097F9073018463D4B984797F99A
S214404F10052097F9061097F907301846384B9847FA
S214404F2097F9052097F9061097F907301846344B3D
S214404F30984797F9052097F9061097F907301846CD
S214404F402F4B984797F9052097F9061097F90730A1
S214404F5018462B4B984797F9052097F9061097F96E
S214404F6007301846264B9847244B9847234B98477C
S214404F70224B984797F9052097F9061097F907307E
S214404F8018461F4B984797F9052097F9061097F94A
S214404F90073018461A4B984797F9052097F9061098
S214404FA097F907301846164B984797F9052097F912
S214404FB0061097F907301846114B984797F9052081
S214404FC097F9061097F9073018460D4B98470B4B44
S214404FD098470A4B9847094B9847084B9847074BC2
S214404FE09847064B9847054B9847044B9847034BC2
S214404FF0984700BF0837BD4680BD00BFBD13400080
S2144050001114400080B582B000AF0346FB710B46DA
S214405010BB7113467B719D4B98479C4B98479B4B67
S21440502098479A4B9847994B9847984B9847974B31
S2144050309847964B984797F9052097F9061097F9A1
S21440504007301846924B984797F9052097F906106F
S21440505097F9073018468E4B984797F9052097F9E9
S214405060061097F907301846894B984797F9052058
S21440507097F9061097F907301846854B984797F9E1
S214405080052097F9061097F907301846804B984741
S21440509097F9052097F9061097F9073018467C4B84
S2144050A0984797F9052097F9061097F9073018465C
S2144050B0774B9847754B9847744B984797F9052018
S2144050C097F9061097F907301846714B984797F9A5
S2144050D0052097F9061097F9073018466C4B984705
S2144050E097F9052097F9061097F907301846684B48
S2144050F0984797F9052097F9061097F9073018460C
S214405100634B984797F9052097F9061097F90730AB
S21440511018465F4B984797F9052097F9061097F978
S214405120073018465A4B984797F9052097F90610C6
S21440513097F907301846564B9847544B9847534B69
S214405140984797F9052097F9061097F907301846BB
S2144051504F4B98474D4B98474C4B98474B4B98472F
S21440516097F9052097F9061097F907301846484BE7
S2144051709847464B9847454B984797F9052097F9E7
S214405180061097F907301846414B98473F4B9847CB
S2144051903E4B98473D4B984797F9052097F90610A0
S2144051A097F9073018463A4B9847384B9847374B4D
S2144051B09847364B9847354B984797F9052097F9C7
S2144051C0061097F907301846314B984797F905204F
S2144051D097F9061097F9073018462D4B984797F9D8
S2144051E0052097F9061097F907301846284B984738
S2144051F097F9052097F9061097F907301846244B7B
S214405200984797F9052097F9061097F907301846FA
S2144052101F4B98471D4B98471C4B98471B4B98472E
S21440522097F9052097F9061097F907301846184B56
S214405230984797F9052097F9061097F907301846CA
S214405240134B984797F9052097F9061097F90730BA
S21440525018460F4B98470D4B98470C4B98470B4BAF
S21440526098470A4B9847094B9847084B9847074B2F
S2144052709847064B9847054B9847044B9847034B2F
S214405280984700BF0837BD4680BD00BFBD134000ED
S2144052901114400080B582B000AF0346FB710B4648
S2144052A0BB7113467B71A04B98479F4B98479E4BCC
S2144052B098479D4B98479C4B98479B4B98479A4B93
S2144052C09847994B9847984B9847974B984797F9E4
S2144052D0052097F9061097F907301846934B9847DC
S2144052E097F9052097F9061097F9073018468F4B1F
S2144052F0984797F9052097F9061097F9073018460A
S2144053008A4B984797F9052097F9061097F9073082
S2144053101846864B9847844B9847834B9847824B12
S214405320984797F9052097F9061097F907301846D9
S2144053307E4B984797F9052097F9061097F907305E
S21440534018467A4B984797F9052097F9061097F92B
S21440535007301846754B984797F9052097F9061079
S21440536097F907301846714B984797F9052097F9F3
S214405370061097F9073018466C4B984797F9052062
S21440538097F9061097F907301846684B9847664BCA
S2144053909847654B984797F9052097F9061097F96F
S2144053A007301846614B98475F4B98475E4B984787
S2144053B05D4B98475C4B984797F9052097F9061040
S2144053C097F907301846594B9847574B9847564BCE
S2144053D0984797F9052097F9061097F90730184629
S2144053E0524B9847504B98474F4B98474E4B984791
S2144053F097F9052097F9061097F9073018464B4B52
S214405400984797F9052097F9061097F907301846F8
S214405410464B9847444B984797F9052097F906100E
S21440542097F907301846414B984797F9052097F962
S214405430061097F9073018463C4B984797F90520D1
S21440544097F9061097F907301846384B984797F95A
S214405450052097F9061097F907301846334B9847BA
S21440546097F9052097F9061097F9073018462F4BFD
S214405470984797F9052097F9061097F90730184688
S2144054802A4B984797F9052097F9061097F9073061
S2144054901846264B9847244B9847234B9847224B11
S2144054A0984797F9052097F9061097F90730184658
S2144054B01E4B984797F9052097F9061097F907303D
S2144054C018461A4B984797F9052097F9061097F90A
S2144054D007301846154B984797F9052097F9061058
S2144054E097F907301846114B98470F4B984797F94E
S2144054F0052097F9061097F9073018460B4B984742
S214405500094B9847084B9847074B9847064B984790
S214405510054B9847044B9847034B9847024B984790
S21440552000BF0837BD4680BDBD1340001114400083
S21440553080B582B000AF0346FB710B46BB71134685
S2144055407B71AB4B9847AA4B9847A94B9847A84BBB
S2144055509847A74B9847A64B9847A54B9847A44BC8
S214405560984797F9052097F9061097F90730184697
S214405570A04B984797F9052097F9061097F90730FA
S21440558018469C4B984797F9052097F9061097F9C7
S21440559007301846974B984797F9052097F9061015
S2144055A097F907301846934B984797F9052097F98F
S2144055B0061097F9073018468E4B984797F90520FE
S2144055C097F9061097F9073018468A4B984797F987
S2144055D0052097F9061097F907301846854B9847E7
S2144055E0834B9847824B984797F9052097F90610C2
S2144055F097F9073018467F4B984797F9052097F953
S214405600061097F9073018467A4B984797F90520C1
S21440561097F9061097F907301846764B984797F94A
S214405620052097F9061097F907301846714B9847AA
S21440563097F9052097F9061097F9073018466D4BED
S214405640984797F9052097F9061097F907301846B6
S214405650684B984797F9052097F9061097F9073051
S2144056601846644B9847624B9847614B984797F962
S214405670052097F9061097F9073018465D4B98476E
S21440568097F9052097F9061097F907301846594BB1
S2144056909847574B9847564B984797F9052097F9A0
S2144056A0061097F907301846524B9847504B984784
S2144056B04F4B984797F9052097F9061097F907300A
S2144056C018464C4B98474A4B9847494B984797F94A
S2144056D0052097F9061097F907301846454B984726
S2144056E097F9052097F9061097F907301846414B69
S2144056F0984797F9052097F9061097F90730184606
S2144057003C4B98473A4B984797F9052097F906102F
S21440571097F907301846374B984797F9052097F979
S214405720061097F907301846324B9847304B984743
S21440573097F9052097F9061097F9073018462D4B2C
S214405740984797F9052097F9061097F907301846B5
S214405750284B984797F9052097F9061097F9073090
S2144057601846244B984797F9052097F9061097F95D
S214405770073018461F4B98471D4B98471C4B984779
S2144057801B4B984797F9052097F9061097F907306D
S2144057901846184B984797F9052097F9061097F939
S2144057A007301846134B9847114B9847104B98476D
S2144057B00F4B984797F9052097F9061097F9073049
S2144057C018460C4B98470A4B9847094B9847084B46
S2144057D09847074B9847064B9847054B9847044BC6
S2144057E09847034B984700BF0837BD4680BD00BF6B
S2144057F0BD1340001114400080B582B000AF034690
S214405800FB710B46BB7113467B71964B9847954B85
S2144058109847944B9847934B9847924B9847914B51
S2144058209847904B98478F4B98478E4B984797F999
S214405830052097F9061097F9073018468A4B98477F
S214405840884B9847874B984797F9052097F9061055
S21440585097F907301846844B984797F9052097F9EB
S214405860061097F9073018467F4B98477D4B984768
S2144058707C4B98477B4B984797F9052097F906103D
S21440588097F907301846784B984797F9052097F9C7
S214405890061097F907301846734B984797F9052036
S2144058A097F9061097F9073018466F4B984797F9BF
S2144058B0052097F9061097F9073018466A4B98471F
