:020000040040BA
:100000007825402031104000E1104000E110400010
:10001000E1104000E1104000E1104000000000004D
:10002000000000000000000000000000E11040009F
:10003000E110400000000000E1104000E11040002D
:10004000E1104000E1104000E1104000E1104000EC
:10005000E1104000E1104000E1104000E1104000DC
:10006000E110400000000000E90B4000010C4000DE
:10007000190C4000E1104000E1104000E110400088
:10008000310C4000490C4000E1104000E1104000FC
:10009000E1104000E1104000E1104000E11040009C
:1000A000E1104000E1104000E1104000E11040008C
:1000B000E110400089064000E1104000E1104000DE
:1000C000E1104000E1104000E1104000E11040006C
:1000D00000000000E110400000000000E1104000BE
:1000E000A1064000E1104000E1104000E110400096
:1000F000E1104000E1104000E1104000E11040003C
:10010000E1104000E1104000E1104000E11040002B
:10011000E1104000000000000000000000000000AE
:10012000E1104000E1104000E1104000E11040000B
:10013000E110400000000000E1104000E11040002C
:1001400010B5054C237833B9044B13B10448AFF311
:1001500000800123237010BD3C04402000000000FB
:100160008C3940000C4B43B10C480D4910B5AFF32E
:1001700000800C48036823B910BD0A48036833B9EE
:100180007047094B002BF7D0BDE810401847064BCD
:10019000002BF5D0184700BF000000008C3940004C
:1001A000400440208C3940000000000080B582B03F
:1001B00000AF78607B68072B31D801A252F823F09A
:1001C0001D024000E1014000E9014000F101400052
:1001D000F901400001024000090240001302400002
:1001E0000020114B98471AE001200F4B984716E06A
:1001F00000200E4B984712E010200C4B98470EE061
:1002000020200A4B98470AE03E210020084B9847DF
:1002100005E03E210120064B984700E000BF00BFEB
:100220000837BD4680BD00BF610D4000CD0D4000C8
:100230003D0E400080B582B000AF78607B68072B30
:1002400026D801A252F823F0690240006D02400056
:100250006D0240007F0240007F0240007F024000AC
:100260007F0240007F024000012312E00B4B9847C1
:100270000346002B14BF01230023DBB209E0084B27
:1002800098470346002B14BF01230023DBB200E094
:10029000002318460837BD4680BD00BF990D4000B9
:1002A000B50E400080B483B000AF78607B68072B48
:1002B00025D801A252F823F0D9024000DF02400005
:1002C000E5024000EB024000EF024000F302400074
:1002D000F7024000FB0240004FF4FA4310E04FF4F5
:1002E00000430DE04FF400430AE0084B08E0084BE0
:1002F00006E0084B04E0074B02E0064B00E0002359
:1003000018460C37BD465DF8047B704700093D0078
:1003100000127A00001BB70080B582B000AF034620
:10032000FB7100BFFB791846054B9847034683F0E5
:100330000103DBB2002BF5D100BF0837BD4680BDFD
:100340003502400080B586B000AFF8607A603B604F
:100350000B46FB727B68002B07D13B68002B04D156
:10036000FB684FF470021A6019E0FB7A18460E4BD6
:10037000984702467B68B2FBF3F37B617B693A687E
:1003800002FB03F37B613B68013B1A04074B1340FC
:100390007A68D2B2134343F47C52FB681A6000BF00
:1003A0001837BD4680BD00BFA50240000000FF0712
:1003B00080B582B000AF786039603B68002B08D10F
:1003C000094B9847094A7B681B6843F000539362C6
:1003D00005E0064A7B681B6843F48033D36100BFA5
:1003E0000837BD4680BD00BFD10E400000060E405C
:1003F00080B582B000AF78607B68002B03D1054BDD
:100400009847034602E0044B9847034618460837CE
:10041000BD4680BDED0E4000090F400080B582B0A2
:1004200000AF0346FB71FB79033B042B08D8FB7933
:100430001846064B9847FB791846054B984700E04D
:1004400000BF00BF0837BD4680BD00BFAD01400002
:100450001903400080B582B000AF786000BF7868B3
:10046000044B98470346002BF9D000231846083761
:10047000BD4680BDF103400080B500AF0620054BAE
:100480009847024613469B0013449A0013441846AB
:1004900080BD00BFA502400080B500AF024B984769
:1004A0000346184680BD00BF7904400090B583B074
:1004B00000AF1348134B98470620134B9847381D3D
:1004C000192301220621114CA0473B1D002118468B
:1004D0000F4B984700200F4B984702200E4B984730
:1004E00000200E4B98470E4B98470E4B98470346FB
:1004F0001846044B984700BF0C37BD4690BD00BF5F
:1005000000A3E111511240001D04400045034000CA
:10051000B103400055044000610C4000DD0C400078
:10052000E91040009904400080B483B000AF7860C7
:100530007B681B6B18460C37BD465DF8047B704723
:1005400080B483B000AF78607B68DB6A18460C37F4
:10055000BD465DF8047B704780B483B000AF78601F
:100560007B68094A934201D1012306E07B68074A70
:10057000934201D1002300E0002318460C37BD460A
:100580005DF8047B704700BF0040064000C0034098
:1005900080B582B000AF03463960FB71FB790A4930
:1005A0001A013B68134451F82330002B07D0FB7924
:1005B00005491A013B68134451F82330984700BF9E
:1005C0000837BD4680BD00BFD004402090B587B03D
:1005D00000AF78607868284B984704467868274BC6
:1005E000984703462340FB607868254B984738615D
:1005F00000237B6139E07B690B2B0FD801227B69DB
:1006000002FA03F31A46FB681340002B2AD03B6919
:10061000DBB2796918461B4B984723E07B690E2BA8
:1006200010D87B690C33012202FA03F31A46FB68E7
:100630001340002B16D03B69DBB279691846114B89
:1006400098470FE07B690F33012202FA03F31A4641
:10065000FB681340002B05D03B69DBB27969184673
:10066000084B98477B6901337B617B690F2BC2D9AB
:1006700000BF1C37BD4690BD290540004105400024
:10068000590540009105400080B500AF0248034B7A
:10069000984700BF80BD00BF00C00340CD054000AB
:1006A00080B500AF0248034B984700BF80BD00BF34
:1006B00000400640CD05400080B485B000AFF86032
:1006C000B9607A607B68002B03D0FB68BA685A6611
:1006D00002E0FB68BA681A6600BF1437BD465DF8D1
:1006E000047B704780B483B000AF786039607B686A
:1006F0003A685A6300BF0C37BD465DF8047B70470B
:1007000080B487B000AFF860B9607A60FB687A683F
:100710005A64BB68B3F1C05F4AD0B3F1C05F08D878
:10072000B3F1006F16D0B3F1805F2CD0002B69D0ED
:1007300064E0B3F1205F65D0B3F1205F03D8B3F17B
:10074000005F4AD05AE0B3F1405F5BD0B3F1605F25
:1007500058D053E0FB681B6F7B61FB681A6F7B68A6
:10076000D9437B690B401A40FB681A67FB685B6FD3
:100770007B61FB685A6F7B68D9437B690B401A40E9
:10078000FB685A673AE0FB681B6F7B617A687B699C
:100790001A43FB681A67FB685B6F7B61FB685A6FE3
:1007A0007B68D9437B690B401A40FB685A6725E098
:1007B000FB681B6F7B61FB681A6F7B68D9437B69A1
:1007C0000B401A40FB681A67FB685B6F7B617A68B5
:1007D0007B691A43FB685A6710E0FB681B6F7B61FB
:1007E0007A687B691A43FB681A67FB685B6F7B61F9
:1007F0007A687B691A43FB685A6700BFFB687A68AE
:100800005A6000E000BF1C37BD465DF8047B7047AE
:1008100080B584B000AFF860B9607A60B968F868F4
:10082000194B98477B6803F001031A46B968F868CA
:10083000164B98477B6803F00A03002B03D0FB6834
:10084000BA681A6202E0FB68BA685A627B6803F011
:100850000203002B04D0FB68BA68C3F8802008E0CC
:100860007B6803F00803002B03D0FB68BA68C3F869
:100870008420FB68BA685A61FB68BA681A6000BFD6
:100880001037BD4680BD00BF490A4000B906400090
:1008900080B584B000AFF860B9607A603B60B96839
:1008A000F868124B9847BA69B968F868104B9847CE
:1008B0003B68002B03D0FB68BA681A6502E0FB684E
:1008C000BA685A657B68002B03D0FB68BA681A6364
:1008D00002E0FB68BA685A63FB68BA681A61FB6891
:1008E000BA681A6000BF1037BD4680BD490A400093
:1008F000B906400090B587B002AFF860B9607A6081
:100900003B60BB68B3F1005F16D0B3F1005F09D85C
:10091000B3F1805F10D0B3F1C05F0DD0B3F1006FC1
:100920000AD03DE0B3F1405F1AD0B3F1605F17D059
:10093000B3F1205F0ED033E07A68B968F8681C4BD9
:1009400098473B6803F001031A467968F868194B29
:10095000984727E03A687968F868174B984721E08C
:10096000BB68B3F1605F0CBF01230023DBB21A4602
:100970003B6803F00403002B14BF01230023DBB208
:1009800019463B6803F00103002B14BF0123002329
:10099000DBB200930B467968F868084CA04701E089
:1009A000002300E0012318461437BD4690BD00BF68
:1009B00001074000B90640001108400091084000BE
:1009C00080B485B000AFF860B9607A607B6803F0EE
:1009D0001003002B20D0FB68BA68C3F8B0207B68F6
:1009E00003F02003002B04D0FB68BA68C3F8D420BE
:1009F00003E0FB68BA68C3F8D0207B6803F04003CB
:100A0000002B04D0FB68BA68C3F8C02008E0FB687C
:100A1000BA68C3F8C42003E0FB68BA68C3F8B4201E
:100A200000BF1437BD465DF8047B704780B483B0C7
:100A300000AF786039607B683A681A6400BF0C3791
:100A4000BD465DF8047B704780B483B000AF78602A
:100A500039607B683A685A6400BF0C37BD465DF860
:100A6000047B704780B483B000AF78607B68DB6C38
:100A700018460C37BD465DF8047B704780B483B0E0
:100A800000AF78607B689B6C18460C37BD465DF8FC
:100A9000047B704780B584B000AF786039607868B7
:100AA000264B9847F8607868254B98470246FB68C4
:100AB0001340FB60FB68002B3CD00023BB6034E09C
:100AC000204ABB681B0113441A683B689A4226D12E
:100AD0001C4ABB681B01134404331A68FB681340AB
:100AE000002B1CD0174ABB681B0113440C331B6836
:100AF0001449BA6812010A4410681249BA6812010E
:100B00000A4404321268114698470E4ABB681B011A
:100B1000134404331B68DB43FA681340FB60BB6873
:100B20000133BB60BB68062B03D8FB68002BC7D121
:100B300000E000BF00BF1037BD4680BD650A400021
:100B40007D0A40005804402080B586B000AFF860B0
:100B5000B9607A603B60214B1B68062B01D90123E9
:100B600038E00023FB7511E0FB7D1B011C4A134498
:100B70003B613B691A68BB689A4204D13B695A6879
:100B80007B689A4208D0FB7D0133FB75FA7D134BDD
:100B90001B689A42E8D900E000BF3B69BA681A6056
:100BA0003B697A685A603B693A689A603B693A6A7D
:100BB000DA60FA7D094B1B6801339A4204D1074B76
:100BC0001B680133054A13603A687968F868054B79
:100BD0009847002318461837BD4680BDC8044020FA
:100BE00058044020C109400080B500AF0A210248E6
:100BF000024B984700BF80BD000E0E40950A400092
:100C000080B500AF0B210248024B984700BF80BD62
:100C100000100E40950A400080B500AF0C2102483C
:100C2000024B984700BF80BD00120E40950A40005D
:100C300080B500AF10210248024B984700BF80BD2D
:100C400000140E40950A400080B500AF1121024803
:100C5000024B984700BF80BD00160E40950A400029
:100C600080B483B000AF78607B68013B032B1AD857
:100C700001A252F823F000BF890C40008F0C400005
:100C8000970C40009F0C400000237B600EE04FF467
:100C900080737B600AE04FF440737B6006E04FF4A2
:100CA00000737B6002E000237B6000BF0A490A4BAF
:100CB0001B6B23F440727B6813430B6300BF064B2E
:100CC0009B6E03F00803002BF9D000BF0C37BD4624
:100CD0005DF8047B704700BF00060E4080B485B00D
:100CE00000AF78601D491D4B1B6B23F070027B68C1
:100CF00013430B634FF48053FB6007E0FB68002B4A
:100D000001D1012323E0FB68013BFB60134B9B6E89
:100D100003F00803002BF1D0104A104B1B6B23F09B
:100D2000030343F0020313634FF48053FB6007E0B7
:100D3000FB68002B01D1012309E0FB68013BFB604C
:100D4000064B9B6E03F00803002BF1D000231846DE
:100D50001437BD465DF8047B704700BF00060E40A7
:100D600080B483B000AF78607B68012B05D1074960
:100D7000064B9A68064B13438B60044B054A1A6076
:100D800000BF0C37BD465DF8047B704710180E405D
:100D9000000010A5080000A580B400AF094B5B69F6
:100DA00003F08003002B07D0074B9B6E03F08003FA
:100DB000002B01D0012300E000231846BD465DF85A
:100DC000047B704710180E4000060E4080B483B0BC
:100DD00000AF78601549154B1A6A154B13430B6227
:100DE00000BF124B9B6E03F40033002BF9D00F4968
:100DF0000E4B1A6A0F4B13407A68134343F45C138B
:100E00000B6200BF094B9B6E03F40033002BF9D03B
:100E10000649064B1A6A084B134043F45C130B62F5
:100E200000BF0C37BD465DF8047B704700060E40DE
:100E3000080037008FFFC8FFFFFFC8FE80B483B0F3
:100E400000AF786039607B68002B08D01349134BE2
:100E50001B6A134A1A40134B13430B6218E00F49E5
:100E60000E4B1A6A104B13403A68120292B21A43A0
:100E70000E4B13430B6200BF084B9B6E03F0010344
:100E8000002BF9D00549054B1A6A094B13430B6235
:100E900000BF0C37BD465DF8047B704700060E406E
:100EA000FCFFC8FE02003701FCFFC8FF010037004D
:100EB0000000370180B400AF044B9B6E03F4803315
:100EC0001846BD465DF8047B704700BF00060E4023
:100ED00080B400AF044B4FF000529A6200BFBD4691
:100EE0005DF8047B704700BF00060E4080B400AF81
:100EF000044B9B6E03F002031846BD465DF8047B6D
:100F0000704700BF00060E4080B400AF044B9B6EDC
:100F100003F040031846BD465DF8047B704700BFF0
:100F200000060E4080B483B000AF78607B683F2B32
:100F300001D901232FE07B681F2B13D8194B9A6925
:100F400001217B6801FA03F31A4001217B6801FA51
:100F500003F39A421ED0134A01217B6801FA03F37E
:100F6000136117E07B68203B7B600E4BD3F80821B0
:100F700001217B6801FA03F31A4001217B6801FA21
:100F800003F39A4206D0074A01217B6801FA03F372
:100F9000C2F80031002318460C37BD465DF8047BCB
:100FA000704700BF00060E4080B483B000AFEFF37F
:100FB00010837B607B68002B0CBF01230023DBB216
:100FC0003B6072B6BFF35F8F044B00221A703B6820
:100FD00018460C37BD465DF8047B70470A00402078
:100FE00080B483B000AF78607B68002B14BF01230E
:100FF0000023DBB218460C37BD465DF8047B704712
:1010000080B582B000AF78607868074B9847034698
:10101000002B05D0054B01221A70BFF35F8F62B61B
:1010200000BF0837BD4680BDE10F40000A004020E8
:1010300080B584B000AF1E4BFB601E4BBB60FA68EE
:10104000BB689A420CD007E0BB681A1DBA60FA6808
:10105000111DF96012681A60BB68174A9342F3D3F6
:10106000164BBB6004E0BB681A1DBA6000221A6010
:10107000BB68134A9342F6D3124BFB60124AFB68DB
:1010800023F07F039360114B98477860104A104B10
:101090001B6843F470031360BFF34F8FBFF36F8F70
:1010A00078680C4B98470C4B98470C4B9847FEE7D9
:1010B0008C394000000040203C0440203C0440208B
:1010C000740540200000400000ED00E0A90F400042
:1010D00088ED00E001104000ED374000D92F4000BE
:1010E00080B400AFFEE7000080B400AF524B1B6B32
:1010F00003F00303012B14D0012B02D3022B38D0B1
:101100007AE04E4B5B6903F08003002B04D04C4B1C
:101110004FF400421A606FE0494B4FF4FA421A60F4
:101120006AE0454B1B6A03F08073002B03D0444BED
:10113000444A1A6060E0424B434A1A603E4B1B6AC5
:1011400003F07003102B04D0202B08D0002B0ED0FE
:101150000EE03B4B1B685B00394A136008E0384BDC
:101160001A6813465B001344354A136000E000BF61
:1011700042E0314B1B6A03F08073002B03D0304BED
:10118000304A1A601CE02E4B2F4A1A602A4B1B6A09
:1011900003F07003102B04D0202B08D0002B0ED0AE
:1011A0000EE0274B1B685B00254A136008E0244BC8
:1011B0001A6813465B001344214A136000E000BF25
:1011C0001D4B1B6B03F00303022B14D11A4B9B6ABC
:1011D0001B0CC3F30A030133194A126802FB03F321
:1011E000174A1360144B9B6ADBB2154A1268B2FBB4
:1011F000F3F3134A136000BF0F4B1B6B03F0700334
:10120000702B08D10E4B1B68104AA2FB03235B080E
:101210000B4A13600AE0084B1B6B1B0903F0070322
:10122000074A126822FA03F3054A136000BFBD465D
:101230005DF8047B704700BF00060E4010180E409A
:101240000C004020001BB70000093D00ABAAAAAA71
:1012500080B483B000AF78607B68194A934204D8A9
:10126000184B4FF080621A6023E07B68164A934265
:1012700003D8144B154A1A601BE07B68144A93424A
:1012800003D8104B134A1A6013E07B68124A93424A
:1012900003D80C4B114A1A600BE07B68104A93424A
:1012A00004D8084B4FF004221A6002E0054B0D4AA7
:1012B0001A6000BF0C37BD465DF8047B704700BF65
:1012C000FF2C3101000C0E40FF59620200010004A6
:1012D000FF86930300020004FFB3C404000300046C
:1012E000FFE0F5050005000480B483B000AF0346BD
:1012F000FB71094997F907305B09FA7902F01F027F
:10130000012000FA02F241F8232000BF0C37BD464D
:101310005DF8047B704700BF00E100E080B483B05B
:1013200000AF03463960FB7197F90730002B0BDAE9
:101330000D49FB7903F00F03043B3A68D2B2520126
:10134000D2B20B441A7609E0084997F907303A6897
:10135000D2B25201D2B20B4483F8002300BF0C3743
:10136000BD465DF8047B704700ED00E000E100E061
:1013700080B483B000AF78607B68072B25D801A2CA
:1013800052F823F0A5134000AB134000B113400006
:10139000B7134000BB134000BF134000C31340000D
:1013A000C71340004FF4FA4310E04FF400430DE040
:1013B0004FF400430AE0084B08E0084B06E0084BF6
:1013C00004E0074B02E0064B00E0002318460C3710
:1013D000BD465DF8047B704700093D0000127A00AD
:1013E000001BB70080B500AF0620054B98470246AA
:1013F00013469B0013449A001344184680BD00BF57
:101400007113400080B500AF024B98470346184661
:1014100080BD00BFE513400080B483B000AF144B23
:101420004FF080421A630023BB7100BF104B4FF096
:1014300080421A6300237B7100BF0D4B4FF0804246
:101440001A630B4B4FF080425A630023FB7102E09A
:10145000FB790133FB71FB79002BF9D0044B4FF082
:1014600080425A6300BF0C37BD465DF8047B70476D
:1014700000140E4080B485B000AF0023BB60174B52
:101480004FF080421A630023FB7302E0FB7B0133C1
:10149000FB73FB7B132BF9D9104B4FF080425A633F
:1014A0000023FB7100BF0D4B4FF080425A630023B5
:1014B000BB7100BF094B4FF080425A6300237B7120
:1014C00000BF064B4FF080425A6300233B7100BFC0
:1014D00000BF1437BD465DF8047B704700140E4012
:1014E0002DE9F84300AF4FF080411948194B984758
:1014F000194B9847034619464FF000020B46144615
:101500004FEA041949EA13794FEA031843464C4657
:101510005B1A64EB0204A60046EA93769D002B4614
:101520003446194622460D4B4FF00004CD1842EBCD
:101530000406284631460A4C0A4A4FF00003A047E9
:1015400003460C461846084B984700BFBDE8F88391
:1015500000140E40E506400005144000DF835A00E9
:10156000DD344000E0835A000100402080B582B0A5
:1015700000AF0023FB7104E0104B9847FB79013367
:10158000FB71FB79072BF7D90023BB7104E00B4BF0
:101590009847BB790133BB71BB79072BF7D900237F
:1015A0007B7104E0054B98477B7901337B717B7934
:1015B000072BF7D900BF0837BD4680BD191440007E
:1015C00080B584B000AF0346FB710B46BB71134678
:1015D0007B710723FB7316E097F9062097F90F300C
:1015E00042FA03F3BB73BB7B03F00103002B02D071
:1015F000274B984701E0274B984797F90F30DBB20C
:10160000013BDBB2FB7397F90F30002BE4DA0723C1
:10161000FB7316E097F9072097F90F3042FA03F3AE
:10162000BB73BB7B03F00103002B02D0184B984720
:1016300001E0184B984797F90F30DBB2013BDBB262
:10164000FB7397F90F30002BE4DA0723FB7316E0E6
:1016500097F9052097F90F3042FA03F3BB73BB7B70
:1016600003F00103002B02D0094B984701E0094B1E
:10167000984797F90F30DBB2013BDBB2FB7397F968
:101680000F30002BE4DA00BF1037BD4680BD00BF2D
:10169000751440001914400080B582B000AF0023DB
:1016A0007B6004E0064B98477B6801337B607B6876
:1016B000FF2BF7DD034B984700BF0837BD4680BDC1
:1016C0006D154000E114400080B582B000AF0346C4
:1016D000FB710B46BB7113467B71814B9847804B66
:1016E00098477F4B98477E4B98477D4B98477C4B5C
:1016F00098477B4B98477A4B9847794B9847784B5C
:101700009847774B9847764B984797F9052097F974
:10171000061097F907301846724B9847704B984758
:101720006F4B98476E4B98476D4B98476C4B98475B
:1017300097F9052097F9061097F907301846694B75
:101740009847674B9847664B9847654B9847644B5B
:10175000984797F9052097F9061097F9073018462A
:10176000604B984797F9052097F9061097F90730CD
:1017700018465C4B984797F9052097F9061097F99A
:1017800007301846574B984797F9052097F90610E8
:1017900097F907301846534B984797F9052097F962
:1017A000061097F9073018464E4B984797F90520D1
:1017B00097F9061097F9073018464A4B984797F95A
:1017C000052097F9061097F907301846454B9847BA
:1017D00097F9052097F9061097F907301846414BFD
:1017E00098473F4B98473E4B984797F9052097F904
:1017F000061097F9073018463A4B984797F9052095
:1018000097F9061097F907301846364B984797F91D
:10181000052097F9061097F907301846314B98477D
:1018200097F9052097F9061097F9073018462D4BC0
:10183000984797F9052097F9061097F90730184649
:10184000284B984797F9052097F9061097F9073024
:101850001846244B984797F9052097F9061097F9F1
:10186000073018461F4B984797F9052097F906103F
:1018700097F9073018461B4B9847194B9847184B58
:101880009847174B9847164B9847154B9847144B5A
:101890009847134B9847124B9847114B9847104B5A
:1018A00098470F4B98470E4B98470D4B98470C4B5A
:1018B00098470B4B98470A4B9847094B9847084B5A
:1018C0009847074B9847064B9847054B9847044B5A
:1018D0009847034B984700BF0837BD4680BD00BFFF
:1018E0006D154000C115400080B582B000AF0346C1
:1018F000FB710B46BB7113467B717A4B9847794B52
:101900009847784B9847774B9847764B9847754B55
:101910009847744B9847734B9847724B9847714B55
:101920009847704B98476F4B98476E4B98476D4B55
:1019300098476C4B98476B4B98476A4B984797F979
:10194000052097F9061097F907301846664B984717
:10195000644B9847634B984797F9052097F9061011
:1019600097F907301846604B984797F9052097F983
:10197000061097F9073018465B4B984797F90520F2
:1019800097F9061097F907301846574B984797F97B
:10199000052097F9061097F907301846524B9847DB
:1019A00097F9052097F9061097F9073018464E4B1E
:1019B00098474C4B98474B4B984797F9052097F918
:1019C000061097F907301846474B9847454B9847FC
:1019D000444B984797F9052097F9061097F9073077
:1019E0001846414B98473F4B98473E4B984797F9CD
:1019F000052097F9061097F9073018463A4B984793
:101A0000384B9847374B984797F9052097F90610B8
:101A100097F907301846344B9847324B9847314B6B
:101A2000984797F9052097F9061097F90730184657
:101A30002D4B984797F9052097F9061097F907302D
:101A40001846294B9847274B9847264B984797F9B4
:101A5000052097F9061097F907301846224B98474A
:101A600097F9052097F9061097F9073018461E4B8D
:101A7000984797F9052097F9061097F90730184607
:101A8000194B984797F9052097F9061097F90730F1
:101A90001846154B9847134B9847124B9847114BD4
:101AA0009847104B98470F4B98470E4B98470D4B54
:101AB00098470C4B98470B4B98470A4B9847094B54
:101AC0009847084B9847074B9847064B9847054B54
:101AD0009847044B9847034B984700BF0837BD46CB
:101AE00080BD00BF6D154000C115400080B582B0BB
:101AF00000AF0346FB710B46BB7113467B717A4BFB
:101B00009847794B9847784B9847774B9847764B4F
:101B10009847754B9847744B9847734B9847724B4F
:101B20009847714B9847704B98476F4B98476E4B4F
:101B300098476D4B98476C4B98476B4B98476A4B4F
:101B4000984797F9052097F9061097F90730184636
:101B5000664B9847644B9847634B984797F9052025
:101B600097F9061097F907301846604B98475E4B77
:101B700098475D4B984797F9052097F9061097F914
:101B800007301846594B984797F9052097F90610E2
:101B900097F907301846554B9847534B9847524B87
:101BA000984797F9052097F9061097F907301846D6
:101BB0004E4B98474C4B98474B4B984797F905200D
:101BC00097F9061097F907301846484B9847464B47
:101BD0009847454B984797F9052097F9061097F9CC
:101BE00007301846414B98473F4B98473E4B984724
:101BF00097F9052097F9061097F9073018463B4BDF
:101C00009847394B9847384B984797F9052097F9EB
:101C1000061097F907301846344B984797F9052076
:101C200097F9061097F907301846304B984797F9FF
:101C3000052097F9061097F9073018462B4B98475F
:101C400097F9052097F9061097F907301846274BA2
:101C5000984797F9052097F9061097F90730184625
:101C6000224B984797F9052097F9061097F9073006
:101C700018461E4B984797F9052097F9061097F9D3
:101C800007301846194B984797F9052097F9061021
:101C900097F907301846154B9847134B9847124B46
:101CA0009847114B9847104B98470F4B98470E4B4E
:101CB00098470D4B98470C4B98470B4B98470A4B4E
:101CC0009847094B9847084B9847074B9847064B4E
:101CD0009847054B9847044B9847034B984700BFDC
:101CE0000837BD4680BD00BF6D154000C1154000DE
:101CF00080B582B000AF0346FB710B46BB71134643
:101D00007B716F4B98476E4B98476D4B98476C4B68
:101D100098476B4B98476A4B9847694B9847684B75
:101D20009847674B9847664B9847654B9847644B75
:101D30009847634B9847624B9847614B9847604B75
:101D400098475F4B984797F9052097F9061097F940
:101D5000073018465B4B984797F9052097F906100E
:101D600097F907301846574B984797F9052097F988
:101D7000061097F907301846524B984797F90520F7
:101D800097F9061097F9073018464E4B98474C4B79
:101D900098474B4B98474A4B9847494B9847484B75
:101DA0009847474B984797F9052097F9061097F9F8
:101DB00007301846434B9847414B9847404B98474C
:101DC0003F4B98473E4B98473D4B98473C4B984775
:101DD0003B4B98473A4B984797F9052097F90610DF
:101DE00097F907301846374B9847354B9847344B8F
:101DF0009847334B984797F9052097F9061097F9BC
:101E0000073018462F4B984797F9052097F9061089
:101E100097F9073018462B4B984797F9052097F903
:101E2000061097F907301846264B984797F9052072
:101E300097F9061097F907301846224B984797F9FB
:101E4000052097F9061097F9073018461D4B98475B
:101E500097F9052097F9061097F907301846194B9E
:101E6000984797F9052097F9061097F90730184613
:101E7000144B9847124B9847114B9847104B984773
:101E80000F4B98470E4B98470D4B98470C4B984774
:101E90000B4B98470A4B9847094B9847084B984774
:101EA000074B9847064B9847054B9847044B984774
:101EB000034B9847024B984700BF0837BD4680BD8B
:101EC0006D154000C115400080B582B000AF0346DB
:101ED000FB710B46BB7113467B717A4B9847794B6C
:101EE0009847784B9847774B9847764B9847754B70
:101EF0009847744B9847734B9847724B9847714B70
:101F00009847704B98476F4B98476E4B98476D4B6F
:101F100098476C4B98476B4B98476A4B984797F993
:101F2000052097F9061097F907301846664B984731
:101F300097F9052097F9061097F907301846624B74
:101F4000984797F9052097F9061097F90730184632
:101F50005D4B984797F9052097F9061097F90730D8
:101F60001846594B9847574B9847564B984797F9FF
:101F7000052097F9061097F907301846524B9847F5
:101F800097F9052097F9061097F9073018464E4B38
:101F900098474C4B98474B4B984797F9052097F932
:101FA000061097F907301846474B9847454B984716
:101FB000444B984797F9052097F9061097F9073091
:101FC0001846414B98473F4B98473E4B984797F9E7
:101FD000052097F9061097F9073018463A4B9847AD
:101FE000384B9847374B984797F9052097F90610D3
:101FF00097F907301846344B9847324B9847314B86
:10200000984797F9052097F9061097F90730184671
:102010002D4B984797F9052097F9061097F9073047
:102020001846294B984797F9052097F9061097F914
:1020300007301846244B984797F9052097F9061062
:1020400097F907301846204B984797F9052097F9DC
:10205000061097F9073018461B4B9847194B9847BD
:10206000184B984797F9052097F9061097F907300C
:102070001846154B9847134B9847124B9847114BEE
:102080009847104B98470F4B98470E4B98470D4B6E
:1020900098470C4B98470B4B98470A4B9847094B6E
:1020A0009847084B9847074B9847064B9847054B6E
:1020B0009847044B9847034B984700BF0837BD46E5
:1020C00080BD00BF6D154000C115400080B582B0D5
:1020D00000AF0346FB710B46BB7113467B71814B0E
:1020E0009847804B98477F4B98477E4B98477D4B4E
:1020F00098477C4B98477B4B98477A4B9847794B4E
:102100009847784B9847774B9847764B9847754B4D
:102110009847744B9847734B9847724B9847714B4D
:10212000984797F9052097F9061097F90730184650
:102130006D4B984797F9052097F9061097F90730E6
:102140001846694B984797F9052097F9061097F9B3
:1021500007301846644B984797F9052097F9061001
:1021600097F907301846604B984797F9052097F97B
:10217000061097F9073018465B4B984797F90520EA
:1021800097F9061097F907301846574B984797F973
:10219000052097F9061097F907301846524B9847D3
:1021A00097F9052097F9061097F9073018464E4B16
:1021B00098474C4B98474B4B984797F9052097F910
:1021C000061097F907301846474B9847454B9847F4
:1021D000444B984797F9052097F9061097F907306F
:1021E0001846414B98473F4B98473E4B984797F9C5
:1021F000052097F9061097F9073018463A4B98478B
:10220000384B9847374B984797F9052097F90610B0
:1022100097F907301846344B9847324B9847314B63
:10222000984797F9052097F9061097F9073018464F
:102230002D4B984797F9052097F9061097F9073025
:102240001846294B984797F9052097F9061097F9F2
:1022500007301846244B984797F9052097F9061040
:1022600097F907301846204B984797F9052097F9BA
:10227000061097F9073018461B4B9847194B98479B
:10228000184B984797F9052097F9061097F90730EA
:102290001846154B9847134B9847124B9847114BCC
:1022A0009847104B98470F4B98470E4B98470D4B4C
:1022B00098470C4B98470B4B98470A4B9847094B4C
:1022C0009847084B9847074B9847064B9847054B4C
:1022D0009847044B9847034B984700BF0837BD46C3
:1022E00080BD00BF6D154000C115400080B582B0B3
:1022F00000AF0346FB710B46BB7113467B71654B08
:102300009847644B9847634B9847624B9847614B9B
:102310009847604B98475F4B98475E4B98475D4B9B
:1023200098475C4B98475B4B98475A4B9847594B9B
:102330009847584B9847574B9847564B9847554B9B
:10234000984797F9052097F9061097F9073018462E
:10235000514B98474F4B98474E4B98474D4B98479A
:102360004C4B98474B4B98474A4B9847494B98479B
:10237000484B9847474B9847464B9847454B98479B
:10238000444B984797F9052097F9061097F90730BD
:102390001846414B98473F4B98473E4B984797F913
:1023A000052097F9061097F9073018463A4B9847D9
:1023B000384B9847374B9847364B9847354B98479B
:1023C000344B9847334B984797F9052097F90610F7
:1023D00097F907301846304B984797F9052097F939
:1023E000061097F9073018462B4B984797F90520A8
:1023F00097F9061097F907301846274B984797F931
:10240000052097F9061097F907301846224B984790
:1024100097F9052097F9061097F9073018461E4BD3
:10242000984797F9052097F9061097F9073018464D
:10243000194B984797F9052097F9061097F9073037
:102440001846154B9847134B9847124B9847114B1A
:102450009847104B98470F4B98470E4B98470D4B9A
:1024600098470C4B98470B4B98470A4B9847094B9A
:102470009847084B9847074B9847064B9847054B9A
:102480009847044B9847034B984700BF0837BD4611
:1024900080BD00BF6D154000C115400080B582B001
:1024A00000AF0346FB710B46BB7113467B71884B33
:1024B0009847874B9847864B9847854B9847844B5E
:1024C0009847834B9847824B9847814B9847804B5E
:1024D00098477F4B98477E4B98477D4B98477C4B5E
:1024E00098477B4B98477A4B9847794B9847784B5E
:1024F000984797F9052097F9061097F9073018467D
:10250000744B984797F9052097F9061097F907300B
:102510001846704B984797F9052097F9061097F9D8
:10252000073018466B4B984797F9052097F9061026
:1025300097F907301846674B984797F9052097F9A0
:10254000061097F907301846624B984797F905200F
:1025500097F9061097F9073018465E4B984797F998
:10256000052097F9061097F907301846594B9847F8
:1025700097F9052097F9061097F907301846554B3B
:102580009847534B9847524B984797F9052097F92E
:10259000061097F9073018464E4B98474C4B984712
:1025A0004B4B984797F9052097F9061097F9073094
:1025B0001846484B9847464B9847454B984797F9DC
:1025C000052097F9061097F907301846414B9847B0
:1025D0003F4B98473E4B984797F9052097F90610CF
:1025E00097F9073018463B4B9847394B9847384B7B
:1025F000984797F9052097F9061097F9073018467C
:10260000344B984797F9052097F9061097F907304A
:102610001846304B984797F9052097F9061097F917
:10262000073018462B4B984797F9052097F9061065
:1026300097F907301846274B984797F9052097F9DF
:10264000061097F907301846224B984797F905204E
:1026500097F9061097F9073018461E4B984797F9D7
:10266000052097F9061097F907301846194B984737
:1026700097F9052097F9061097F907301846154B7A
:102680009847134B9847124B9847114B9847104B5C
:1026900098470F4B98470E4B98470D4B98470C4B5C
:1026A00098470B4B98470A4B9847094B9847084B5C
:1026B0009847074B9847064B9847054B9847044B5C
:1026C0009847034B984700BF0837BD4680BD00BF01
:1026D0006D154000C115400080B582B000AF0346C3
:1026E000FB710B46BB7113467B71814B9847804B46
:1026F00098477F4B98477E4B98477D4B98477C4B3C
:1027000098477B4B98477A4B9847794B9847784B3B
:102710009847774B9847764B9847754B9847744B3B
:102720009847734B9847724B9847714B984797F966
:10273000052097F9061097F9073018466D4B984712
:1027400097F9052097F9061097F907301846694B55
:10275000984797F9052097F9061097F9073018461A
:10276000644B984797F9052097F9061097F90730B9
:102770001846604B98475E4B98475D4B984797F9D2
:10278000052097F9061097F907301846594B9847D6
:1027900097F9052097F9061097F907301846554B19
:1027A0009847534B9847524B984797F9052097F90C
:1027B000061097F9073018464E4B98474C4B9847F0
:1027C0004B4B984797F9052097F9061097F9073072
:1027D0001846484B9847464B9847454B984797F9BA
:1027E000052097F9061097F907301846414B98478E
:1027F0003F4B98473E4B984797F9052097F90610AD
:1028000097F9073018463B4B9847394B9847384B58
:10281000984797F9052097F9061097F90730184659
:10282000344B984797F9052097F9061097F9073028
:102830001846304B984797F9052097F9061097F9F5
:10284000073018462B4B984797F9052097F9061043
:1028500097F907301846274B984797F9052097F9BD
:10286000061097F907301846224B984797F905202C
:1028700097F9061097F9073018461E4B984797F9B5
:10288000052097F9061097F907301846194B984715
:1028900097F9052097F9061097F907301846154B58
:1028A0009847134B9847124B9847114B9847104B3A
:1028B00098470F4B98470E4B98470D4B98470C4B3A
:1028C00098470B4B98470A4B9847094B9847084B3A
:1028D0009847074B9847064B9847054B9847044B3A
:1028E0009847034B984700BF0837BD4680BD00BFDF
:1028F0006D154000C115400080B582B000AF0346A1
:10290000FB710B46BB7113467B71814B9847804B23
:1029100098477F4B98477E4B98477D4B98477C4B19
:1029200098477B4B98477A4B9847794B9847784B19
:102930009847774B9847764B9847754B9847744B19
:102940009847734B9847724B9847714B984797F944
:10295000052097F9061097F9073018466D4B9847F0
:1029600097F9052097F9061097F907301846694B33
:10297000984797F9052097F9061097F907301846F8
:10298000644B984797F9052097F9061097F9073097
:102990001846604B984797F9052097F9061097F964
:1029A000073018465B4B984797F9052097F90610B2
:1029B00097F907301846574B984797F9052097F92C
:1029C000061097F907301846524B984797F905209B
:1029D00097F9061097F9073018464E4B98474C4B1D
:1029E00098474B4B98474A4B9847494B9847484B19
:1029F000984797F9052097F9061097F90730184678
:102A0000444B9847424B9847414B984797F90520CC
:102A100097F9061097F9073018463E4B98473C4BFC
:102A200098473B4B98473A4B9847394B9847384B18
:102A3000984797F9052097F9061097F90730184637
:102A4000344B984797F9052097F9061097F9073006
:102A50001846304B984797F9052097F9061097F9D3
:102A6000073018462B4B984797F9052097F9061021
:102A700097F907301846274B984797F9052097F99B
:102A8000061097F907301846224B984797F905200A
:102A900097F9061097F9073018461E4B984797F993
:102AA000052097F9061097F907301846194B9847F3
:102AB00097F9052097F9061097F907301846154B36
:102AC0009847134B9847124B9847114B9847104B18
:102AD00098470F4B98470E4B98470D4B98470C4B18
:102AE00098470B4B98470A4B9847094B9847084B18
:102AF0009847074B9847064B9847054B9847044B18
:102B00009847034B984700BF0837BD4680BD00BFBC
:102B10006D154000C115400080B582B000AF03467E
:102B2000FB710B46BB7113467B7197F9052097F932
:102B3000061097F907301846CF4B984797F90520AC
:102B400097F9061097F907301846CB4B984797F935
:102B5000052097F9061097F907301846C64B984795
:102B600097F9052097F9061097F907301846C24BD8
:102B7000984797F9052097F9061097F907301846F6
:102B8000BD4B984797F9052097F9061097F907303C
:102B90001846B94B984797F9052097F9061097F909
:102BA00007301846B44B984797F9052097F9061057
:102BB00097F907301846B04B984797F9052097F9D1
:102BC000061097F907301846AB4B984797F9052040
:102BD00097F9061097F907301846A74B984797F9C9
:102BE000052097F9061097F907301846A24B984729
:102BF00097F9052097F9061097F9073018469E4B6C
:102C0000984797F9052097F9061097F90730184665
:102C1000994B984797F9052097F9061097F90730CF
:102C20001846954B984797F9052097F9061097F99C
:102C300007301846904B984797F9052097F90610EA
:102C400097F9073018468C4B984797F9052097F964
:102C5000061097F907301846874B984797F90520D3
:102C600097F9061097F907301846834B984797F95C
:102C7000052097F9061097F9073018467E4B9847BC
:102C800097F9052097F9061097F9073018467A4BFF
:102C9000984797F9052097F9061097F907301846D5
:102CA000754B984797F9052097F9061097F9073063
:102CB0001846714B984797F9052097F9061097F930
:102CC000073018466C4B984797F9052097F906107E
:102CD00097F907301846684B984797F9052097F9F8
:102CE000061097F907301846634B984797F9052067
:102CF00097F9061097F9073018465F4B984797F9F0
:102D0000052097F9061097F9073018465A4B98474F
:102D100097F9052097F9061097F907301846564B92
:102D2000984797F9052097F9061097F90730184644
:102D3000514B984797F9052097F9061097F90730F6
:102D400018464D4B984797F9052097F9061097F9C3
:102D500007301846484B984797F9052097F9061011
:102D600097F907301846444B984797F9052097F98B
:102D7000061097F9073018463F4B984797F90520FA
:102D800097F9061097F9073018463B4B984797F983
:102D9000052097F9061097F907301846364B9847E3
:102DA00097F9052097F9061097F907301846324B26
:102DB000984797F9052097F9061097F907301846B4
:102DC0002D4B984797F9052097F9061097F907308A
:102DD0001846294B984797F9052097F9061097F957
:102DE00007301846244B984797F9052097F90610A5
:102DF00097F907301846204B984797F9052097F91F
:102E0000061097F9073018461B4B984797F905208D
:102E100097F9061097F907301846174B984797F916
:102E2000052097F9061097F907301846124B984776
:102E300097F9052097F9061097F9073018460E4BB9
:102E4000984797F9052097F9061097F90730184623
:102E5000094B984797F9052097F9061097F907301D
:102E60001846054B984797F9052097F9061097F9EA
:102E70000730184602E000BFC11540004F4B98478D
:102E800097F9052097F9061097F9073018464B4B2C
:102E9000984797F9052097F9061097F907301846D3
:102EA000464B984797F9052097F9061097F9073090
:102EB0001846424B984797F9052097F9061097F95D
:102EC000073018463D4B984797F9052097F90610AB
:102ED00097F907301846394B984797F9052097F925
:102EE000061097F907301846344B984797F9052094
:102EF00097F9061097F907301846304B984797F91D
:102F0000052097F9061097F9073018462B4B98477C
:102F100097F9052097F9061097F907301846274BBF
:102F2000984797F9052097F9061097F90730184642
:102F3000224B984797F9052097F9061097F9073023
:102F400018461E4B984797F9052097F9061097F9F0
:102F500007301846194B984797F9052097F906103E
:102F600097F907301846154B984797F9052097F9B8
:102F7000061097F907301846104B984797F9052027
:102F800097F9061097F9073018460C4B984797F9B0
:102F9000052097F9061097F907301846074B984710
:102FA00097F9052097F9061097F907301846034B53
:102FB000984700BF0837BD4680BD00BFC11540001F
:102FC00080B400AF034B01221A7000BFBD465DF80C
:102FD000047B7047CC0440202DE9F04F89B002AF4C
:102FE00000233B75B94B9847B94B4FF400425A60E8
:102FF0000C20B84B98470A20B64B984700234FF453
:1030000080724FF04051B448B44CA04701234FF4B4
:1030100000624FF02051B248B04CA047B14B009332
:1030200050234FF400620A21AD48AF4CA0470A205C
:10303000AE4B984705210A20AD4B98474FF40061ED
:10304000A748AC4B98471020A24B984700234FF05D
:1030500080424FF04051A848A04CA047A74B98474A
:1030600007F10C0300221A605A6034233B733123AA
:103070007B733323BB733723FB73A14B00221A707E
:103080009F4B1B78DBB2002B1BD100226421002058
:103090009C4B98470022642100209A4B98470022BD
:1030A00064210020974B9847002264210020954B13
:1030B00098477B7B0133DBB27B73FB7B0133DBB255
:1030C000FB730023FB750023BB7541E097F91630B5
:1030D00007F11802134413F80C3C2F2B08D997F969
:1030E000163007F11802134413F80C3C392B23D97E
:1030F00097F9163007F11802134413F80C3C402BD3
:1031000008D997F9163007F11802134413F80C3C4C
:103110005A2B11D997F9163007F11802134413F8F6
:103120000C3C602B18D997F9163007F1180213449C
:1031300013F80C3C7A2B0FD897F91730DBB2013318
:10314000DBB2FB7597F91630DBB20133DBB2BB752E
:1031500097F91630042BB9DD00237B75684B1B787B
:10316000DBB2002B00F061815AE17B7D012B00F284
:103170008D807B7D07F11802134413F80C3C312B32
:1031800005D16422002100205F4B98473FE17B7D01
:1031900007F11802134413F80C3C322B05D16422BA
:1031A00000210020594B984731E17B7D07F118023F
:1031B000134413F80C3C332B05D16422002100206A
:1031C000534B984723E17B7D07F11802134413F812
:1031D0000C3C342B05D16422002100204D4B984734
:1031E00015E17B7D07F11802134413F80C3C352BD5
:1031F00005D1642200210020474B984707E17B7DE1
:1032000007F11802134413F80C3C362B05D1642245
:1032100000210020414B9847F9E07B7D07F118021F
:10322000134413F80C3C372B05D1642200210020F5
:103230003B4B9847EBE07B7D07F11802134413F8F2
:103240000C3C382B05D1642200210020354B9847D7
:10325000DDE07B7D07F11802134413F80C3C392B99
:1032600005D16422002100202F4B9847CFE07B7DC1
:1032700007F11802134413F80C3C302B40F0C780C0
:10328000642200210020294B9847C0E07B7D032B5E
:1032900000F2BD807B7D07F11802134413F80C3C4B
:1032A000312B05D1002200216420174B9847AEE056
:1032B0007B7D07F11802134413F80C3C322B37D1F5
:1032C000002200216420114B9847A0E0AD0440008B
:1032D00050180E40250F400000120E40F508400027
:1032E000000E0E40C12F4000490B4000E912400083
:1032F0001D1340002D0A400000140E409916400096
:10330000CC044020192B4000C9164000E9184000A9
:10331000ED1A4000F11C4000C91E4000CD204000C5
:10332000ED2240009D244000D9264000F9284000AD
:103330007B7D07F11802134413F80C3C332B05D1A5
:10334000002200216420594B984760E07B7D07F103
:103350001802134413F80C3C342B05D10022002131
:103360006420534B984752E07B7D07F118021344C9
:1033700013F80C3C352B05D10022002164204D4B65
:10338000984744E07B7D07F11802134413F80C3C86
:10339000362B05D1002200216420474B984736E0A8
:1033A0007B7D07F11802134413F80C3C372B05D131
:1033B000002200216420414B984728E07B7D07F1E3
:1033C0001802134413F80C3C382B05D100220021BD
:1033D00064203B4B98471AE07B7D07F118021344A9
:1033E00013F80C3C392B05D1002200216420354B09
:1033F00098470CE07B7D07F11802134413F80C3C4E
:10340000302B04D10022002164202F4B984797F9DC
:103410001730DBB2013BDBB2FB757B7D01337B7583
:1034200097F91730002BBFF6A0AE284B9847284BD2
:103430009847034619464FF000020B4614464FEAE0
:10344000441B4BEAD36B4FEA431A53465C465B1A64
:1034500064EB02044FEA840949EA93794FEA83084E
:1034600043464C465B1844EB0204E2007A607A68FB
:1034700042EA53727A60DB003B60D7E900341946B8
:10348000224641F22B734FF00004CD1842EB0406A4
:10349000284631460F4C41F22C724FF00003A047F2
:1034A00003460C4618460C4B9847E9E5ED1A4000D8
:1034B000F11C4000C91E4000CD204000ED2240001C
:1034C0009D244000D9264000F9284000E114400026
:1034D00005144000DD3440000100402053B94AB9D2
:1034E000002908BF00281CBF4FF0FF314FF0FF300C
:1034F00000F07AB9ADF1080C6DE904CE00F006F8E1
:10350000DDF804E0DDE9022304B070472DE9F0475F
:103510008C460D460446089E002B51D18A42174620
:103520006DD9B2FA82FEBEF1000F0BD0CEF1200CA5
:1035300001FA0EF520FA0CFC02FA0EF74CEA050C23
:1035400000FA0EF44FEA174A250CBCFBFAF81FFAF2
:1035500087F90AFB18CC45EA0C4508FB09F3AB4296
:103560000AD9ED1908F1FF3280F02381AB4240F215
:103570002081A8F102083D44ED1AA4B2B5FBFAF08F
:103580000AFB105544EA054400FB09F9A14509D995
:10359000E41900F1FF3380F00A81A14540F2078170
:1035A00002383C44A4EB090440EA08400021002E04
:1035B00061D024FA0EF4002334607360BDE8F08714
:1035C0008B4207D9002E54D0002186E821000846FE
:1035D000BDE8F087B3FA83F1002940F08E80AB425A
:1035E00002D3824200F2FA80841A65EB03050120BF
:1035F000AC46002E3FD086E81010BDE8F08712B927
:103600000127B7FBF2F7B7FA87FEBEF1000F34D1FE
:10361000EB1B3A0C1FFA87FC0121B3FBF2F8250CD7
:1036200002FB183345EA03450CFB08F3AB4207D90C
:10363000ED1908F1FF3002D2AB4200F2D180804692
:10364000ED1AA3B2B5FBF2F002FB105543EA0544B4
:103650000CFB00FCA44507D9E41900F1FF3302D2AA
:10366000A44500F2B8801846A4EB0C0440EA0840D8
:103670009DE731463046BDE8F087CEF1200405FADB
:103680000EF307FA0EF720FA04F83A0C25FA04F4C0
:1036900048EA0308B4FBF2F14FEA184502FB114473
:1036A0001FFA87FC45EA044501FB0CF3AB4200FA24
:1036B0000EF409D9ED1901F1FF3080F08A80AB4298
:1036C00040F2878002393D44EB1A1FFA88F5B3FBBC
:1036D000F2F002FB103345EA034500FB0CF3AB426A
:1036E00007D9ED1900F1FF386FD2AB426DD902381E
:1036F0003D44EB1A40EA01418FE7C1F1200722FA6D
:1037000007F88B4005FA01F448EA030320FA07FEA4
:103710004FEA134CFD404EEA040EB5FBFCF94FEAAC
:103720001E440CFB19551FFA83F844EA054509FBB2
:1037300008F4AC4202FA01F200FA01FA08D9ED18D5
:1037400009F1FF3043D2AC4241D9A9F102091D442D
:103750002D1B1FFA8EFEB5FBFCF00CFB10554EEA3C
:10376000054400FB08F8A04507D9E41800F1FF352F
:1037700029D2A04527D902381C4440EA0940A4EBCD
:103780000804A0FB02894C45C6464D4615D312D00D
:1037900056B1BAEB0E0364EB050404FA07F7CB400D
:1037A0001F43CC40376074600021BDE8F0871846A5
:1037B000F8E69046E0E6C245EAD2B8EB020E69EBC5
:1037C00003050138E4E72846D7E7404691E78146FC
:1037D000BEE7014678E702383C4445E7084608E77B
:1037E000A8F102083D442BE7704700BF70B50F4EAB
:1037F0000F4D761BB61018BF002405D0013455F8C4
:10380000043B9847A642F9D10A4E0B4D761B00F0B7
:10381000A7F8B61018BF002406D0013455F8043BB1
:103820009847A642F9D170BD70BD00BF6C39400009
:103830006C394000743940006C394000024B13B1C0
:10384000024800F005B87047000000005D384000F5
:10385000002301461A46184600F01EB838B50A4C37
:103860000A4D641BA4100AD004F18043013B05EB10
:103870008305013C55F804399847002CF9D1BDE87F
:10388000384000F077B800BF8439400080394000EC
:10389000704700BF704700BF2DE9F8432C4D064626
:1038A000286898460F469146FFF7F2FF294B1C689F
:1038B000D4F84831002B3ED05A681F2A1CDC02F194
:1038C000010E76B103EB82010124C1F88890D3F890
:1038D000880194402043022EC3F88801C1F8088172
:1038E00023D00232C3F804E0286843F82270FFF7BF
:1038F000D1FF0020BDE8F883174B0BB34FF4C8701D
:10390000AFF300800346D8B1D4F84821026000210B
:1039100041600A46C4F848014FF0010EC0F8881112
:10392000C0F88C11002EDCD0CCE7D3F88C110C43FE
:10393000C3F88C41D5E704F5A673C4F84831BBE75A
:103940002868FFF7A7FF4FF0FF30BDE8F88300BFFE
:10395000380440205C394000000000001000402086
:10396000F8B500BFF8BC08BC9E4670473D38400023
:1039700065014000F8B500BFF8BC08BC9E46704722
:0439800041014000C1
:0839840088FBFF7F0100000039
:10398C00BFF35F8F0138FBD17047010000093D0088
:10399C0000000000FC02402064034020CC034020C7
:1039AC00000000000000000000000000000000000B
:1039BC0000000000000000000000000000000000FB
:1039CC0000000000000000000000000000000000EB
:1039DC0000000000000000000000000000000000DB
:1039EC0000000000000000000000000000000000CB
:1039FC0000000000000000000000000000000000BB
:103A0C0000000000000000000000000000000000AA
:103A1C00000000000000000000000000000000009A
:103A2C00000000000000000000000000000000008A
:103A3C000000000000000000010000000000000079
:103A4C000E33CDAB34126DE6ECDE05000B0000003E
:103A5C00000000000000000000000000000000005A
:103A6C00000000000000000000000000000000004A
:103A7C00000000000000000000000000000000003A
:103A8C00000000000000000000000000000000002A
:0C3DBC0000000000000000005005402046
:040000050040103176
:00000001FF
